:1000000000800010C5000000110100001301000075
:100010001501000017010000190100000000000098
:100020000000000000000000000000001D010000B2
:100030001F01000000000000210100008D190000D8
:100040002501000035190000411900004D1900007C
:1000500059190000250100002501000025010000BC
:1000600025010000250100002501000025010000F8
:1000700025010000250100002501000025010000E8
:1000800025010000250100002501000025010000D8
:1000900025010000250100002501000025010000C8
:1000A00021170000250100002501000025010000A6
:1000B00025010000250100002501000025010000A8
:1000C000250100000B490C4A0C4B9A423EBF51F8E7
:1000D000040B42F8040BF8E700200949094A914251
:1000E0003CBF41F8040BFAE7074880470748004740
:1000F000FEE700008051000000000010B00000107A
:10010000B000001000170010190F00007D2500003E
:10011000FEE7FEE7FEE7FEE7FEE700BFFEE7FEE7DD
:10012000FEE7FEE7FEE7000080B586B000AFF860AE
:10013000B9607A60FB681B785B09DBB203F00303EC
:100140007B610A4A7B6952F823303B613B69002B93
:1001500001D1002305E03B69F868B9687A689847DF
:10016000034618461837BD4680BD00BFC4000010C6
:1001700080B584B000AF0346FB718020012100F000
:100180006FFA074BBB600023FB6002E0FB680133A2
:10019000FB60FB68072BF9DD1037BD4680BD00BF53
:1001A000B000001080B582B000AF0E4B1B68402B32
:1001B000A8BF40237B600C4B1B68802019467A68DF
:1001C00000F072FA084B1A687B681344064A136001
:1001D000044B1A687B68D31A024A13600837BD467D
:1001E00080BD00BFBC000010B800001080B584B016
:1001F00000AF03460A46FB711346BB71FB79002B27
:1002000040F09180BB7903F00403002B41D0002023
:100210004949082200F094FA474B1B785B09DBB28E
:1002200003F00303FB60454AFB6852F82330444A5D
:100230001360414BDB881A46424B1A603E4BDB8809
:100240001A46414B1A603C4BDB88002B07D03A4BD7
:100250001B78DB09DBB203F00103002B68D03648C2
:100260003949374AFFF760FF0346002B04D1BB79B9
:100270001846FFF77DFF5BE02F4BDB881A46324BB9
:100280001B689342A8BF13462E4A1360FFF78AFFEC
:100290004EE02C4B1B68002B3EDD294B1A68294B86
:1002A0001B68002011461A4600F04AFAB860BB6885
:1002B000002B04DABB791846FFF75AFF38E0204BD1
:1002C0001A68BB6813441E4A13601E4B1A68BB6849
:1002D000D31A1C4A13601B4B1B68002B28D1164BEA
:1002E0001B785B09DBB203F00303FB60134AFB6876
:1002F00052F82330124A13600F481349104AFFF78F
:1003000013FF0346002B04D1BB791846FFF730FFDB
:100310000EE0FFF747FF0BE000200021002200F075
:100320000FFAB86004E0FB79802B01D1FFF73AFFA8
:100330001037BD4680BD00BFB0000010D4000010D3
:10034000B8000010BC000010C000001080B485B0E0
:1003500000AFF860B9607A600749FB68BA6841F895
:1003600023200649FB687A6841F823201437BD46EC
:100370005DF8047B704700BFC4000010D40000107B
:1003800080B483B000AF786000BF084BD3F8002280
:100390007B681A407B689A42F7D1044A7B68C2F8AE
:1003A00008320C37BD465DF8047B704700C0005032
:1003B00080B582B000AF0346FB71084B3022C3F812
:1003C0000822064AFB791B0443F4A063C2F81032EA
:1003D0001020FFF7D5FF0837BD4680BD00C0005094
:1003E00080B582B000AF03460A46FB711346BB805E
:1003F000FB791846FFF7DCFF064ABB881B0443F471
:100400008073C2F810321020FFF7BAFF0837BD46DC
:1004100080BD00BF00C0005080B582B000AF034671
:10042000FB71FB791846FFF7C3FF094AFB791B04F0
:1004300043F40073C2F810322020FFF7A1FF044BF1
:10044000D3F81432DBB218460837BD4680BD00BF72
:1004500000C0005080B582B000AF78600B467B8052
:100460000C490C4BD3F8443201207A6800FA02F2AE
:100470001343C1F84432074A7B68C2F84832054A40
:100480007B88C2F84C324FF48070FFF779FF083751
:10049000BD4680BD00C0005080B582B000AF78601E
:1004A00039607B68DBB243F04003DBB2DAB23B6811
:1004B000002B01D0002300E0202310461946FFF74F
:1004C0008FFF0837BD4680BD80B584B000AF0346BE
:1004D0000A46FB711346BB80FB7903F00F035B00F8
:1004E000FA79D209D2B21343FB60BB88F868194687
:1004F000FFF7B0FFF8680121FFF7CEFF1037BD46C8
:1005000080BD00BF80B485B000AF03463960FB7189
:10051000FB7903F00F035B00FA79D209D2B21343DF
:10052000FB60FB68DA0F13445B1019460D4A3B6809
:1005300042F821300C490C4BD3F834320120FA68D0
:1005400000FA02F21343C1F83432074A064BD3F8DB
:10055000043243F00403C2F804321437BD465DF898
:10056000047B7047E800001000C0005080B483B0E6
:1005700000AF7860074A7B681360074A064BD3F8E0
:10058000043243F00803C2F804320C37BD465DF86C
:10059000047B7047E400001000C0005080B483B0BA
:1005A00000AF7860074A7B681360074A064BD3F8B0
:1005B000043243F00103C2F804320C37BD465DF843
:1005C000047B70472801001000C0005080B582B045
:1005D00000AF0346FB71FB7963F07F03DBB29BB294
:1005E000D0201946FFF7FCFE0837BD4680BD00BF8E
:1005F00080B582B000AF78607B68002B14BF012308
:100600000023DBB29BB2FE201946FFF7E9FE083754
:10061000BD4680BD80B582B000AF0346FB71FB795B
:100620009BB2F3201946FFF7DBFE0837BD4680BDBD
:1006300080B584B000AF0346FB71FB7903F00F0374
:100640005B00FA79D209D2B21343FB60FB68DBB2DC
:100650001846FFF7E1FE034618461037BD4680BD39
:1006600080B584B000AF03463960FB71FB7903F0BD
:100670000F035B00FA79D209D2B21343FB60FB6827
:10068000DBB243F04003DBB2DAB23B68002B14BFAD
:1006900001230023DBB29BB210461946FFF7A0FEF0
:1006A0001037BD4680BD00BF80B586B000AF0346A1
:1006B000B9607A60FB73FB7B03F00F035B00FA7B8E
:1006C000D209D2B213437B611C4AFB7B03F00F03B8
:1006D0009B0043F00203C2F82832184A7B68C2F834
:1006E000243216E01549BB6803331B781A06BB6831
:1006F00002331B781B041A43BB6801331B781B02AF
:100700001343BA6812781343C1F81C32BB68043330
:10071000BB600A4BD3F8283203F00203002BE1D16F
:100720007B69DBB21846FFF743FEFA20FFF740FE75
:100730007B6818461837BD4680BD00BF00C000501A
:1007400080B588B000AF0346B9607A60FB73FB7B6D
:1007500003F00F035B00FA7BD209D2B213437B6133
:10076000294AFB7B03F00F039B0043F00103C2F80F
:100770002832254BD3F820323B613B6903F40063F8
:10078000002BF6D03B6903F48063002B02D14FF0BD
:10079000FF3335E03B69C3F309033B610023BB61D1
:1007A0000023FB611BE0FB6903F00303002B03D173
:1007B000154BD3F81832BB61BB68002B09D0FA691E
:1007C0007B689A4205DAFB69BA681344BA69D2B207
:1007D0001A70BB691B0ABB61FB690133FB61FA69D3
:1007E0003B699A42DFD3084B0022C3F828227B6979
:1007F000DBB21846FFF7DCFDF220FFF7D9FD3B69BD
:1008000018462037BD4680BD00C0005080B582B07C
:1008100000AF78607B68002B14BF01230023DBB29C
:100820009BB2D8201946FFF7DBFD0837BD4680BDD7
:1008300080B586B000AF5E4BD3F800323B613B69B8
:1008400003F00103002B11D0594B0122C3F80822F9
:10085000584B1B68002B09D0F520FFF7DDFD034640
:10086000FB81544B1B68FA89104698473B6903F09B
:100870000803002B2CD04E4B0822C3F80822FE2080
:10088000FFF7CAFD03467B737B7B03F01A03002B43
:100890001ED07B7B03F00103002B14BF0123002338
:1008A000DBB2DAB27B7B03F00403DBB21343DAB2D0
:1008B0007B7B03F01003DBB21343DBB23B733E4B95
:1008C0001B68002B04D03C4B1B683A7B10469847B2
:1008D0003B6903F00403002B67D0354B0422C3F8B7
:1008E000082200237B615DE001227B6902FA03F3A9
:1008F000BB602F4BD3F83022BB681340002B4ED087
:100900002B4ABB68C2F838322020FFF739FD284B4C
:10091000D3F81432FB71FB7903F00103002B14BFF1
:1009200001230023DBB2DAB2FB7903F00203DBB26E
:100930001343DAB2FB7903F00403DBB21343DAB2F8
:10094000FB7903F01003DBB21343DAB2FB7903F057
:100950000803DBB21343DBB23B737B69DA0F13444A
:100960005B101A46154B53F82230002B17D07B69C9
:10097000DA0F13445B101A46104B53F822307A6991
:10098000D201D1B27A695210D2B202F00F02D2B2C1
:100990000A43D2B2D1B23A7B0846114698477B69E6
:1009A00001337B617B691F2B9EDD1837BD4680BDFF
:1009B00000C0005028010010E4000010E800001002
:1009C00080B500AF2D4A2D4B1B6923F440231361E2
:1009D0002A4A2A4B1B6943F480231361274A274B79
:1009E000DB6823F0405323F03003D360234A234BCA
:1009F000DB6843F0005343F01003D3601F4A1F4BE2
:100A00005B6823F0705353601C4A1C4B5B6843F0D7
:100A1000A05353601A4A1A4BD3F8C43043F0004332
:100A2000C2F8C430174B1A22C3F8F42F00BF154B7D
:100A3000D3F8F83F03F01A031A2BF8D1114B002218
:100A4000C3F804220F4B4FF0FF32C3F808220D4BBE
:100A50000022C3F82C220B4B0022C3F83422094B8E
:100A60004FF0FF32C3F83822064B0022C3F8402271
:100A70000020FFF7CFFD0123184680BD00C00240D3
:100A800000C00F4000C0005080B483B000AF0346E8
:100A9000FB710C37BD465DF8047B704780B500AF35
:100AA000FFF78EFF0D48FFF761FD00200C49FFF7AF
:100AB00029FD80200A49FFF725FD00204021FFF78E
:100AC00003FD80204021FFF7FFFC00200549064A76
:100AD000FFF73CFC0123184680BD00BF890A0000D7
:100AE000ED010000A10E00002C01001080B483B0C5
:100AF00000AF7860034A7B6813600C37BD465DF831
:100B0000047B70473C01001080B489B000AFBA602C
:100B10007B600346FB810B46BB81FB891B0A9BB2B2
:100B2000FB75FB89BB751E4B1B68FB610023BB611A
:100B30002BE0FB6901331B78FA7D9A421FD1BA7D05
:100B4000BB699A4218D17B68FA691A60FB7D022B57
:100B50000BD1FB6902331B781A46FB6903331B7800
:100B60001B021A43BB681A6004E0FB691B781A4633
:100B7000BB681A6001230DE0BB690133BB61FB69EF
:100B80001B781A46FB691344FB61FB691B78002B39
:100B9000CFD1002318462437BD465DF8047B70474B
:100BA0003C01001080B586B000AF03460A46FB71D9
:100BB0001346BB71FB79002B03D10020FFF726FE03
:100BC00045E0254B1B687B61FF23FB74FF23BB744F
:100BD00036E07B6901331B78042B08D0052B0AD043
:100BE000022B00D026E07B695B79FB7422E07B69F5
:100BF000DB78BB741EE0FA7CFB799A4219D1BA7C8F
:100C0000BB799A4215D17B699B787B747B690433ED
:100C10001B789AB27B6905331B781B029BB2134386
:100C20009BB2FB817A7CFB8910461946FFF74CFC8E
:100C3000FFE700BF7B691B781A467B6913447B6121
:100C40007B691B78002BC4D10120FFF7DFFD012356
:100C500018461837BD4680BD3C01001080B586B0EF
:100C600000AFF860B9607A607B681B687B61FB68E5
:100C70005B78092B52D801A252F823F0A50C000092
:100C8000150D00001D0D0000150D00001D0D0000CC
:100C9000BB0C0000C90C0000190D0000E10C0000A5
:100CA000F10C00007B6900221A707B69013300227D
:100CB0001A70BB6802221A6032E0FB685B88DBB204
:100CC0001846FFF783FC2BE0FB685A88FB689B887B
:100CD00010461946BA687B68FFF716FF034620E006
:100CE000124B1A787B691A70BB6801221A6017E0F0
:100CF000FB685B88DBB218460021FFF753FF034611
:100D0000002B01D100230CE0FB685B88DAB2074BB3
:100D10001A7005E0002304E0002302E0002300E055
:100D2000012318461837BD4680BD00BF34010010AE
:100D300080B487B000AFF860B9607A607B681B68E8
:100D40007B61FB685B780B2B38D801A252F823F04B
:100D5000810D0000970D0000BD0D0000970D0000F3
:100D6000BD0D0000BD0D0000BD0D0000BD0D00005B
:100D7000BD0D0000BD0D00009B0D0000A90D000081
:100D80007B6900221A707B69013300221A70BB68EC
:100D900002221A6014E0002313E07B6900221A701B
:100DA000BB6801221A600BE0FB685B88002B01D056
:100DB000002306E0BB6800221A6001E0002300E087
:100DC000012318461C37BD465DF8047B704700BF01
:100DD00080B586B000AFF860B9607A607B681B6848
:100DE0007B61FB685B780C2B53D801A252F823F08F
:100DF000250E0000570E0000930E0000730E000039
:100E0000930E0000930E0000930E0000930E00005E
:100E1000930E0000930E0000930E0000930E00004E
:100E20008F0E0000FB689B88DBB21846FFF700FCC2
:100E3000034603F00203002B14BF01230023DBB29F
:100E40001A467B691A707B69013300221A70BB68ED
:100E500002221A601FE0FB685B88002B07D1FB6849
:100E60009B88DBB218460021FFF7FAFB13E0002352
:100E700012E0FB685B88002B07D1FB689B88DBB224
:100E800018460121FFF7ECFB05E0002304E00023F6
:100E900002E0002300E0012318461837BD4680BD5C
:100EA00080B584B000AFF860B9607A60194B1B68F8
:100EB000002B0AD0174B1B68F868B9687A68984706
:100EC0000346002B01D001231FE0FB681B7803F0D1
:100ED0001F03012B0AD0022B0FD0002B14D1F8686E
:100EE000B9687A68FFF7BAFE03460EE0F868B96899
:100EF0007A68FFF71DFF034607E0F868B9687A686B
:100F0000FFF766FF034600E0002318461037BD4692
:100F100080BD00BF3801001080B400AF4D4B2022CF
:100F2000C3F8A02100BF4B4BD3F8A03103F040031E
:100F3000002BF8D0474B0322C3F80421454B002275
:100F4000C3F8A821434B0022C3F8AC21414B012236
:100F5000C3F80C213F4B404AC3F884203D4BAA22E2
:100F6000C3F88C203B4B5522C3F88C20394B01220F
:100F7000C3F88020374BAA22C3F88C20354B55226A
:100F8000C3F88C2000BF334BD3F8883003F0806364
:100F9000002BF8D02F4B0322C3F880202D4BAA2220
:100FA000C3F88C202B4B5522C3F88C2000BF294B53
:100FB000D3F8883003F04073002BF8D0254B232260
:100FC000C3F8A420234BAA22C3F88C20214BAA22C9
:100FD000C3F8AC201F4B5522C3F8AC201D4B012297
:100FE000C3F8A0201B4BAA22C3F8AC20194B5522F2
:100FF000C3F8AC2000BF174BD3F8A83003F48063CC
:10100000002BF8D0134B0322C3F8A020114BAA22C7
:10101000C3F8AC200F4B5522C3F8AC2000BF0D4BDA
:10102000D3F8A83003F44073002BF8D0094B0B4AD7
:10103000C3F8C420074B0022C3F8C821054A054B5A
:101040001B6823F4704343F480431360BD465DF88E
:10105000047B704700C00F4063000500DE87280452
:10106000034683F30988704780B483B000AF03461A
:10107000FB71084997F907305B09FA7902F01F0202
:10108000012000FA02F241F823200C37BD465DF83A
:10109000047B704700E100E080B483B000AF0346FA
:1010A0003960FB7197F90730002B0BDA0D49FB799A
:1010B00003F00F03043B3A68D2B2D200D2B20B4421
:1010C0001A7609E0084997F907303A68D2B2D20097
:1010D000D2B20B4483F800230C37BD465DF8047B85
:1010E000704700BF00ED00E000E100E080B483B095
:1010F00000AF154B4FF0FF32C3F88020124B012296
:10110000C3F88420104B4FF0FF32C3F880210E4B00
:101110000122C3F884210C4B002283F80023012311
:10112000FB7108E0084AFB791344782283F8002316
:10113000FB790133FB71FB791F2BF3D90C37BD46CB
:101140005DF8047B704700BF00E100E080B582B02D
:1011500000AF1B4B4FF020625A60194B00229A607F
:10116000174B184ADA60164B00221A61144B002202
:101170005A610023FB7107E0114AFB7913440022F6
:101180001A76FB790133FB71FB791F2BF4D90C4BD9
:1011900000225A620A4B4FF0FF329A62084B4FF01E
:1011A000FF32DA62064B4FF0FF321A630020002153
:1011B000FFF772FF0020FFF757FF0837BD4680BDDD
:1011C00000ED00E00000FA0580B483B000AF786065
:1011D000034A7B6893600C37BD465DF8047B70471B
:1011E00000ED00E080B485B000AF0346FB71002342
:1011F000FB60FB79042B1CD801A252F823F000BF3E
:10120000151200001B12000021120000271200001E
:101210002D1200000B4BFB600CE00B4BFB6009E058
:101220000A4BFB6006E00A4BFB6003E0094BFB60E6
:1012300000E000BFFB6818461437BD465DF8047B2C
:10124000704700BF00C0092020C0092040C009200D
:1012500060C0092080C0092080B584B000AF03467B
:101260003960FB711346BB71FB791846FFF7BAFF73
:10127000F860FB68002B10D0BB79002B06D0FB6810
:101280001A683B681A43FB681A6006E0FB681A6834
:101290003B68DB431A40FB681A601037BD4680BDCF
:1012A00080B584B000AF03463960FB71FB79184606
:1012B000FFF798FFF860FB68002B02D0FB683A68E4
:1012C0009A611037BD4680BD80B584B000AF03463B
:1012D0003960FB71FB791846FFF784FFF860FB6803
:1012E000002B02D0FB683A68DA611037BD4680BD3A
:1012F00080B582B000AF03463960FB711346BB7105
:10130000FA79BB79104639681A46FFF7A5FF083706
:10131000BD4680BD80B582B000AF03463960FB7129
:10132000FB7918463968FFF7BBFF0837BD4680BD1B
:1013300080B582B000AF03463960FB71FB79184677
:101340003968FFF7C1FF0837BD4680BD80B485B05E
:1013500000AF786039607B681F2B02D97B68203B27
:1013600000E07B68FB607B681F2B17D81949194B7D
:10137000D3F8A831FA68032000FA02F2D2431340EE
:10138000C1F8A8311348134BD3F8A821FB6839687A
:1013900001FA03F31343C0F8A83116E00D490D4BD1
:1013A000D3F8AC31FA68032000FA02F2D2431340BA
:1013B000C1F8AC310748074BD3F8AC21FB6839685A
:1013C00001FA03F31343C0F8AC311437BD465DF89E
:1013D000047B704700C00F4080B400AF62B6BD46CA
:1013E0005DF8047B704700BF80B400AF72B6BD46A5
:1013F0005DF8047B704700BF80B584B000AF034642
:101400003960FB710023FB600023BB60FB79012B7B
:101410001AD0022B69D0002B00D07DE0414BFB603D
:10142000FB68414AA2FB03239B0C3A68920802FB2B
:1014300003F3BB60BB68FE2B05D94FF08042BB684D
:101440005360012369E067E0384B1B689B08FB6031
:10145000FB68354AA2FB03239B0C3A68920802FB07
:1014600003F3BB60BB68FE2B09D900200021FFF706
:101470006DFF4FF08042BB68536001234DE02B4B62
:101480001B685B08FB60FB68274AA2FB03239B0CDD
:101490003A68920802FB03F3BB60BB68FE2B09D9D4
:1014A00000200221FFF752FF4FF08042BB685360DB
:1014B000012332E01D4B1B68FB60FB681A4AA2FB4C
:1014C00003239B0C3A68920802FB03F3BB60BB68E2
:1014D000FE2B09D900200121FFF738FF4FF0804291
:1014E000BB685360012318E016E04FF40043FB6033
:1014F000FB680D4AA2FB03239B0C3A68920802FB8F
:1015000003F3BB60BB68FE2B05D94FF08042BB687C
:101510005360012301E000BF002318461037BD4689
:1015200080BD00BF00093D0083DE1B4300000010AA
:1015300080B582B000AF03460A46FB711346BB710B
:1015400000200021FFF702FF4FF080424FF0804360
:101550001B6923F0030313614FF080414FF0804378
:101560001A69FB7913430B61BB79012B09D14FF049
:1015700080424FF080431B78DBB243F00203DBB2C2
:1015800013700837BD4680BD80B584B000AF786069
:101590004FF080431B69FB60FB6803F00303FB60B3
:1015A000FB68DBB218467968FFF726FF4FF08042F0
:1015B0004FF080431B78DBB243F00103DBB21370C2
:1015C00000F004F81037BD4680BD00BF80B500AF05
:1015D000FFF70AFF4FF08043AA221A724FF08043B0
:1015E00055221A72FFF7F8FE80BD00BF80B483B0A9
:1015F00000AF0346FB71084997F907305B09FA7998
:1016000002F01F02012000FA02F241F823200C37F9
:10161000BD465DF8047B704700E100E080B586B010
:1016200000AF03460A46FB711346BB7100233B61C2
:10163000134800F075FB38613B693F2B00DC1CE070
:10164000FB7918460F494022FFF77AF8F86000232B
:101650007B610EE00B4A7B6913441B7808481946EE
:1016600000F0A6FA0346002B00D106E07B690133A7
:101670007B617A69FB689A42ECDB1837BD4680BD16
:10168000E00500104005001080B584B000AF0346AF
:101690000A46FB711346BB71154800F00FFB034669
:1016A000002B03D10020FEF7B5FF1EE00023FB60F6
:1016B0000DE0FB680F4A13440D48194600F0BAFAD2
:1016C0000346002B00D105E0FB680133FB60FB689B
:1016D0003F2BEEDDFB68BB60BB68002B05DDFB79B3
:1016E00018460449BA68FEF7DFFF1037BD4680BDD3
:1016F000EC0500104005001080B582B000AF034635
:10170000FB80064800F0DAFA0346002B02DD2020B9
:10171000FEF780FF0837BD4680BD00BFEC05001016
:1017200080B500AFFFF784F880BD00BF80B586B0FC
:1017300000AF3B4600221A60043300221A600433D3
:1017400000221A8002334FF460437B6100233B6127
:101750000023FB6015E0FB68C3F109037A69127886
:1017600007F118010B4403F8182C7B6901337B61E6
:101770007B691B78FF2B01D001233B61FB680133A0
:10178000FB60FB68092BE6DD3B69012B27D13A782A
:10179000254B83F882207A78234B83F88420BA780B
:1017A000214B83F88620FA781F4B83F888203A79FA
:1017B0001D4B83F88A207A791B4B83F88C20BA79E9
:1017C000194B83F88E20FA79174B83F890203A7AD8
:1017D000154B83F892207A7A134B83F89420FFF705
:1017E0005DF91148FFF782F982201049FEF78AFE61
:1017F00005200F49FEF786FE0E48FEF7CFFE20209B
:10180000FEF708FF0C480D4900F0A2F90C480D49FD
:1018100000F09EF91820FFF7E9FE0120FEF7E8FE30
:101820001837BD4680BD00BF0400001089160000B7
:101830001D160000F9160000E0050010400300101E
:10184000EC0500104001001080B483B000AF0346E7
:101850003960FB7197F90730002B0BDA0D49FB79E2
:1018600003F00F03043B3A68D2B2D200D2B20B4469
:101870001A7609E0084997F907303A68D2B2D200DF
:10188000D2B20B4483F800230C37BD465DF8047BCD
:10189000704700BF00ED00E000E100E080B582B0DD
:1018A00000AF78607B68B3F1807F01D3012311E042
:1018B0000A4A7B6823F07F43013B53604FF0FF30BF
:1018C0001F21FFF7C1FF054B00229A60034B07223F
:1018D0001A60002318460837BD4680BD10E000E0BE
:1018E00080B584B000AF0346FB80FB880F4A52F8F6
:1018F00023301B68FB60FB880C4A52F82330FA68DF
:101900001A60FB880A4A52F82330002B0AD0FB8861
:10191000074A52F82330FA88920005490A441046D3
:10192000F96898471037BD4680BD00BF9C00001085
:101930008C05001080B500AF0020FFF7D1FF80BDFF
:1019400080B500AF0120FFF7CBFF80BD80B500AFB1
:101950000220FFF7C5FF80BD80B500AF0320FFF771
:10196000BFFF80BD80B500AF064B1B68064AA2FBD7
:1019700003239B091846FFF791FF0346002B00D075
:10198000FEE780BD00000010D34D621080B582B02C
:1019900000AF294B1B680133274A1360274B1B7884
:1019A0000133DAB2254B1A70244B1B78632B02D912
:1019B000224B00221A70224B1B687B6036E07B684A
:1019C0001B7C03F00103DBB2002B2CD07B689B68EF
:1019D000002B04D07B689B685A1E7B689A607B68EA
:1019E0009B68002B1FD17B681B7CDBB29B0803F03C
:1019F0000103DBB2002B04D07B68DA687B689A6055
:101A000004E07B681A7C22F001021A747B681A7C5D
:101A100042F002021A747B685B68002B03D07B687B
:101A20005B68786898477B681B687B607B68002BE5
:101A3000C5D10837BD4680BD800500109C0500104B
:101A40008405001080B483B000AF78607B6800220A
:101A50001A600C4B1B68002B06D10A4A7B68136086
:101A6000094A7B68136006E0074B1B687A681A60B6
:101A7000054A7B681360012318460C37BD465DF8A4
:101A8000047B7047840500108805001080B485B081
:101A900000AFF860B9607A60FB68BA68DA60FB682A
:101AA000DA68FB689A60FB687A685A60FB681A7C9F
:101AB00022F002021A74FB681A7C42F001021A74C6
:101AC0001437BD465DF8047B704700BF80B400AF9B
:101AD00062B6BD465DF8047B704700BF80B400AFBE
:101AE00072B6BD465DF8047B704700BF80B483B01A
:101AF00000AF0346FB71084997F907305B09FA7993
:101B000002F01F02012000FA02F241F823200C37F4
:101B1000BD465DF8047B704700E100E080B483B00F
:101B200000AF0346FB71094997F907305B09FA7961
:101B300002F01F02012000FA02F2203341F82320B4
:101B40000C37BD465DF8047B704700BF00E100E044
:101B500080B483B000AF786039607B6800221A607F
:101B60007B6800225A607B683A689A600C37BD46F1
:101B70005DF8047B704700BF80B584B000AF78602B
:101B80000B46FB701820FFF7C9FFFB7878681946F1
:101B900000F00EF80346FB732020FEF73BFD1820F3
:101BA000FFF7A4FFFB7B18461037BD4680BD00BF82
:101BB00080B485B000AF78600B46FB707B681B6813
:101BC0005A1C114B1340002B05DA013B6FEAC3533B
:101BD0006FEAD3530133FB607B685A68FB689A4213
:101BE00001D100230AE07B689B687A68126813447D
:101BF000FA781A707B68FA681A600123184614375D
:101C0000BD465DF8047B7047FF01008080B584B05D
:101C100000AF78603960FFF761FF7868396800F0DD
:101C200009F80346FB73FFF751FFFB7B184610379B
:101C3000BD4680BD80B485B000AF786039607B68F8
:101C40001A687B685B689A4201D100231AE07B68BE
:101C50005B685A1C0E4B1340002B05DA013B6FEA00
:101C6000C3536FEAD3530133FB607B689B687A6888
:101C7000526813441B78DAB23B681A707B68FA68C2
:101C80005A60012318461437BD465DF8047B70473F
:101C9000FF01008080B584B000AF78601820FFF7A6
:101CA0003DFF786800F00AF8F8601820FFF71EFF83
:101CB000FB6818461037BD4680BD00BF80B483B0B6
:101CC00000AF78607B681B6803F500727B685B6817
:101CD000D21A084B1340002B05DA013B6FEAC353BD
:101CE0006FEAD353013318460C37BD465DF8047BC9
:101CF000704700BFFF01008080B584B000AF7860FE
:101D00001820FFF70BFF786800F00AF8F860182039
:101D1000FFF7ECFEFB6818461037BD4680BD00BFDC
:101D200080B582B000AF78607868FFF7B3FF0346F4
:101D3000C3F5FF73013318460837BD4680BD00BFA9
:101D400080B500AF0248FFF7A5FF0346184680BDE7
:101D5000E005001080B582B000AF0023FB71FB1DD1
:101D600004481946FFF752FFFB7918460837BD466D
:101D700080BD00BFE005001080B582B000AF034613
:101D8000FB71FB7903481946FFF7F6FE0837BD469D
:101D900080BD00BFEC05001080B584B000AF786056
:101DA00039600023FB6009E0FB687A6813441B7804
:101DB0001846FFF7E1FFFB680133FB60FA683B68F8
:101DC0009A42F1DB1037BD4680BD00BF80B584B0BC
:101DD00000AF78600023FB7303E0BB7B1846FFF77E
:101DE000CBFFFB7B5A1CFA731A467B6813441B78A3
:101DF000BB73BB7B002BF0D11037BD4680BD00BF4D
:101E000080B582B000AF0346FB71FB7903F00F038E
:101E1000FB71FB79092B06D8FB793033DBB218460E
:101E2000FFF7AAFF05E0FB793733DBB21846FFF76F
:101E3000A3FF0837BD4680BD80B582B000AF034622
:101E4000FB71FB791B09DBB21846FFF7D9FFFB7961
:101E500003F00F03DBB21846FFF7D2FF0837BD4689
:101E600080BD00BF80B582B000AF0346FB80FB8819
:101E70001B0A9BB2DBB21846FFF7DEFFFB88DBB222
:101E80001846FFF7D9FF0837BD4680BD80B582B040
:101E900000AF78607B681B0C9BB21846FFF7E2FF2F
:101EA0007B689BB21846FFF7DDFF0837BD4680BD53
:101EB00080B584B000AF78600023FB737B688F4AE5
:101EC000934213D90023FB7306E07A688C4B1344CA
:101ED0007B60FB7B0133FB737B68884A9342F4D8B9
:101EE000FB7B3033DBB21846FFF746FF7B68854A41
:101EF000934214D90023FB7306E07A68824B1344A3
:101F00007B60FB7B0133FB737B687E4A9342F4D892
:101F1000FB7B3033DBB21846FFF72EFF05E0FB7B7F
:101F2000002B02D03020FFF727FF7B68774A9342CF
:101F300014D90023FB7306E07A68754B13447B6069
:101F4000FB7B0133FB737B68704A9342F4D8FB7BC5
:101F50003033DBB21846FFF70FFF05E0FB7B002BA9
:101F600002D03020FFF708FF7B686A4A934216D9F7
:101F70000023FB7308E07B68A3F57423A3F51073BB
:101F80007B60FB7B0133FB737B68624A9342F2D830
:101F9000FB7B3033DBB21846FFF7EEFE05E0FB7B40
:101FA000002B02D03020FFF7E7FE7B685A4A9342AD
:101FB00015D90023FB7307E07B68A3F5C333A03B6F
:101FC0007B60FB7B0133FB737B68534A9342F3D8FE
:101FD000FB7B3033DBB21846FFF7CEFE05E0FB7B20
:101FE000002B02D03020FFF7C7FE7B6842F20F7251
:101FF000934216D90023FB7307E07B68A3F51C53BB
:10200000103B7B60FB7B0133FB737B6842F20F72FA
:102010009342F2D8FB7B3033DBB21846FFF7ACFEBD
:1020200005E0FB7B002B02D03020FFF7A5FE7B688C
:10203000B3F57A7F14D30023FB7306E07B68A3F526
:102040007A737B60FB7B0133FB737B68B3F57A7F2C
:10205000F4D2FB7B3033DBB21846FFF78DFE05E090
:10206000FB7B002B02D03020FFF786FE7B68632BC2
:1020700015D97B68294AA2FB03235B09FB73FB7B11
:102080003033DBB21846FFF777FEFB7B6FF063025D
:1020900002FB03F31A467B6813447B6005E0FB7B7D
:1020A000002B02D03020FFF767FE7B68092B15D983
:1020B0007B681B4AA2FB0323DB08FB73FB7B3033EB
:1020C000DBB21846FFF758FEFB7B6FF0090202FBFC
:1020D00003F31A467B6813447B6005E0FB7B002B0F
:1020E00002D03020FFF748FE7B68DBB23033DBB232
:1020F0001846FFF741FE1037BD4680BDFFC99A3B29
:10210000003665C4FFE0F505001F0AFA7F969800C7
:10211000806967FF3F420F009F8601001F85EB51DA
:10212000CDCCCCCC80B582B000AF78607B68002B82
:1021300005DA2D20FFF720FE7B685B427B607B6821
:102140001846FFF7B5FE0837BD4680BD80B582B0A2
:1021500000AFC7E90001D7E900014FF000024FF0DE
:10216000000302F017FE0346002B08D02D20FFF7D6
:1021700003FE3B683B607B6883F000437B60D7E9EC
:10218000000102F057FE03461846FFF791FE2E208D
:10219000FFF7F2FDD7E9000102F024FE03461846DE
:1021A00002F020FB02460B46D7E9000102F0CCF911
:1021B00002460B46C7E90023D7E900014FF00002B1
:1021C000154B02F075FB02460B46C7E90023D7E921
:1021D00000014FF00002114B02F0DCFD0346002B22
:1021E00002D03020FFF7C8FDD7E900014FF0000210
:1021F0000B4B02F0CFFD0346002B02D03020FFF73F
:10220000BBFDD7E9000102F015FE03461846FFF7B3
:102210004FFE0837BD4680BD00408F40000059404A
:10222000000024400FB480B584B000AF07F11C0358
:102230007B600023FB600023FB72B0E0FB7A002B85
:1022400000F0A380BB7A633B152B00F29A8001A2B9
:1022500052F823F059230000DD2200008323000000
:102260008323000007230000832300008323000052
:102270008323000083230000AD220000832300009D
:102280008323000083230000272300008323000012
:10229000832300006F23000083230000B32200008B
:1022A0008323000083230000272300000423FB7204
:1022B0006AE0FB7A042B07D17B681A1D7A601B68E1
:1022C0001846FFF7F5FD06E07B681A1D7A601B686B
:1022D0001846FFF7EDFD0023FB7255E0FB7A042B57
:1022E00007D17B681A1D7A601B681846FFF71AFF32
:1022F00006E07B681A1D7A601B681846FFF712FF1C
:102300000023FB7240E07B68073323F0070303F1EF
:1023100008027A60D3E9002310461946FFF716FF3A
:102320000023FB7230E02648FFF750FDFB7A042BB8
:1023300007D17B681A1D7A601B681846FFF7A6FD57
:1023400007E07B681A1D7A601B689BB21846FFF78E
:1023500089FD0023FB7217E07B681A1D7A601B68F9
:10236000DBB21846FFF708FD0023FB720CE07B6828
:102370001A1D7A601B681846FFF728FD0023FB72C0
:1023800002E00023FB7200BF09E0BB7A252B02D1DB
:102390000223FB7203E0BB7A1846FFF7EDFCFB68F3
:1023A0005A1CFA60BA6913441B78BB72BB7A002BC3
:1023B0007FF444AF1037BD46BDE8804004B070479D
:1023C000AC00001080B485B000AF78607B6803F08B
:1023D0000703FB600C4BDB68BB60BA684FF6FF037A
:1023E0001340BB60FB681A02BB68134343F0BF6332
:1023F00043F40033BB60044ABB68D3601437BD4666
:102400005DF8047B704700BF00ED00E080B483B04E
:1024100000AF78600C37BD465DF8047B704700BFA5
:1024200080B500AF02201021012200F0B3FC022091
:102430001021002200F0C0FC02202021012200F027
:10244000A9FC02202021002200F0B6FC0220082175
:10245000012200F09FFC02200821002200F0ACFCC9
:1024600002204FF48001012200F094FC02204FF47E
:102470008001002200F0A0FC00204FF48001012226
:1024800000F088FC00204FF48001012200F094FC51
:1024900001204FF48011012200F07CFC01204FF05C
:1024A0008071012200F076FC01204FF08071012242
:1024B00000F082FC01204FF48011012200F07CFC2E
:1024C00001204FF00071012200F064FC01204FF068
:1024D0008051012200F05EFC01204FF0805101226A
:1024E00000F06AFC01204FF00071012200F064FC52
:1024F00001204FF00051012200F04CFC002002218D
:10250000012200F047FC00200221012200F054FCCF
:1025100001204FF00051012200F04EFC00204FF44A
:102520008061012200F036FC02204FF4806101221C
:1025300000F030FC02204FF48061012200F03CFCEE
:1025400000204FF48061012200F036FC02200821B7
:10255000012200F01FFC02200821002200F02CFCC8
:1025600080BD00BF80B400AFBD465DF8047B7047FE
:1025700080B400AFBD465DF8047B704780B5ADF513
:10258000005D88B000AFFEF7B1FDFEF7DFFD05206E
:10259000FFF718FF0020FEF717FEFFF7E3F9FFF73C
:1025A0003FFFFFF7DFFFFFF7E3FF9148FFF74AFA2E
:1025B0008F4832218F4AFFF769FA8D4B1A7C42F01F
:1025C00004021A74FFF7B2F807F580531A464FF465
:1025D0008053104600211A4602F04CFC864B1B6CBF
:1025E00007F5005202F11C021360002307F50052A8
:1025F00002F11802136001200121FEF799FF7F48C4
:10260000FEF7C2FFFEF7E2FF52E0FFF799FB034639
:10261000002B4DD0FFF79EFB034607F5005202F159
:102620000B021370764B1B6C754907F5005202F1D3
:102630000B021278CA54724B1B6C0133704A13643C
:1026400007F5005303F10B031B780A2B06D007F59F
:10265000005303F10B031B780D2B12D1694B1B6840
:10266000002B0ED1664B1B6C012B07DD644A92F8E0
:10267000443043F0010382F8443002E0604B002212
:102680001A64604B1B68012B12D15F4B1B6801332E
:102690005D4A13605C4B1A685C4B1B689A4207D119
:1026A000574A92F8443043F0010382F8443014E072
:1026B000534B93F8443003F00103DBB2002B0CD1F1
:1026C000FFF73EFB0346002B03D14E4B1B68012B4B
:1026D00003D14B4B1B6C3F2B97DD4A4B1B68002BE8
:1026E00016D1474B1B6C002B12D0454801F0AAFBBA
:1026F000034607F5005202F10A021370404B002214
:102700001A643F4A92F844306FF3000382F8443071
:102710003C4B1B68002B00F08681394B1B6C002B57
:1027200000F08181364B1B6C35481946FFF734FBAE
:10273000334B1B6C1A4607F5005303F118031B6853
:102740001344B3F5805F02D93148FFF73FFB002304
:1027500007F5005202F11402136020E007F5005360
:1027600003F114031A6807F5005303F118031B68FB
:102770001344234907F5005202F1140212680A4477
:10278000117807F58052D15407F5005303F1140373
:102790001B68013307F5005202F114021360184B55
:1027A0001A6C07F5005303F114031B689A42D5DC39
:1027B000134B1B6C1A4607F5005303F118031B68F3
:1027C000134407F5005202F1180213600C4B00226B
:1027D0001A640B4A92F844306FF3000382F84430D5
:1027E000094B1A68094B1B689A4230D127E000BF99
:1027F000400600100D240000444F000080C3C901B2
:10280000F805001054160010F0160010F416001011
:10281000104F000007F5805207F5005303F118032D
:102820001B681344FF221A7007F5005303F11803C5
:102830001B68013307F5005202F11802136007F517
:10284000005303F118031B68B3F5805FE2D307F56B
:10285000005303F118031B68B3F5805F40F0E38079
:1028600007F5805307F5005202F11C021068194663
:102870004FF4805200F0F6F807F5005303F104031B
:10288000186007F5005303F104031B68002B02D006
:102890006548FFF79BFA07F5005303F11C031B681B
:1028A00003F5805307F5005202F11C021360002368
:1028B00007F5005202F1180213605C4B1A685C4B7A
:1028C0001B689A4240F0AF80302307F5005202F1B6
:1028D00003021370002307F5005202F10C0213608B
:1028E0004FF4704307F5005202F11002136007F134
:1028F0002003203B07F5005202F10C02126813443A
:1029000007F5005202F1030212781A7007F500531E
:1029100003F10C031B68013307F5005202F10C02AE
:10292000136007F5005303F110031B68013307F52B
:10293000005202F11002136026E007F5005303F184
:1029400010031B68197807F12003203B07F500529C
:1029500002F10C02126813440A461A7007F500537C
:1029600003F110031B68013307F5005202F1100256
:10297000136007F5005303F10C031B68013307F5DF
:10298000005202F10C02136007F5005303F10C032F
:102990001B68B3F5805FD0DB264B1B680F200F212F
:1029A0001A4600F09BF9234B1B680F200F211A4693
:1029B00000F06AF91F4B1B680F200F211A4600F028
:1029C0008DF91C4B1B681C4AA2FB03239A0907F1D3
:1029D0002003203B10464FF470411A464FF48053B9
:1029E00000F0F6F8134B1B68134AA2FB03239A0965
:1029F00007F12003203B10464FF470411A464FF474
:102A0000805300F013F90A4B00221A60074B002292
:102A10001A600A4B00221A60094B1B6C07F5005222
:102A200002F11C021360EDE52C4F0000F0160010BF
:102A3000F416001000000010D34D62105416001060
:102A4000444F000080B400AF62B6BD465DF8047B21
:102A5000704700BF80B400AF72B6BD465DF8047B1E
:102A6000704700BF90B587B000AFF860B9607A607A
:102A70007B68B3F5805F58D1FFF7ECFF00237B61E3
:102A80000BE0BA687B69134419782A4A7B691344BE
:102A90000A461A707B6901337B617A697B689A42C6
:102AA000EFD3254B1B68254AA2FB03239A09FB6839
:102AB0001046194600F04CF8214B1B68002B02D041
:102AC0002048FFF783F91C4B1B681C4AA2FB032319
:102AD0009909FA68BB68084611461A464FF48053B4
:102AE00000F076F8164B1B68002B02D01648FFF753
:102AF0006DF9114B1B68114AA2FB03239A09FB686D
:102B00000C4C1046194622464FF4805300F08EF8C4
:102B10000B4B1B68002B02D00C48FFF757F9002322
:102B2000FB60FFF78FFF002300E0012318461C37EE
:102B3000BD4690BD5406001000000010D34D621039
:102B4000B4050010D84F0000F84F000010500000EE
:102B500080B584B000AF78603960FFF77BFF102349
:102B6000FB6020E0174AFB6852F823203B689A423A
:102B700016D8FB681D2B05D1F868F9687A6800F053
:102B8000ADF80DE0FB6801330E4A52F823203B6894
:102B90009A4205D9F868F9687A6800F09FF805E06C
:102BA000FB680133FB60FB681D2BDBD9FFF74AFF95
:102BB000054B1B68002B02D00448FFF707F91037BC
:102BC000BD4680BD444F0000B4050010D84F000042
:102BD00080B584B000AFF860B9607A603B60FFF701
:102BE00039FF0F4B33221A600D4ABB6853600C4A01
:102BF0007B6893600A4A3B68D360094AFB681361AB
:102C00000748084900F094F8FFF71CFF054B1B68C4
:102C1000002B02D00448FFF7D9F81037BD4680BD1D
:102C2000A0050010B4050010F84F000080B584B076
:102C300000AFF860B9607A603B60FFF70BFF0F4BA5
:102C400038221A600D4ABB6853600C4A7B68936057
:102C50000A4A3B68D360094AFB6813610748084980
:102C600000F066F8FFF7EEFE054B1B68002B02D064
:102C70000448FFF7ABF81037BD4680BDA005001033
:102C8000B40500104050000080B584B000AFF8607B
:102C9000B9607A60FFF7DEFE0D4B34221A600C4AF1
:102CA000FB6853600A4ABB689360094A7B68D3603B
:102CB0000748084900F03CF8FFF7C4FE054B1B68C5
:102CC000002B02D00448FFF781F81037BD4680BDC5
:102CD000A0050010B40500102850000080B584B095
:102CE00000AFF860B9607A60FFF7B4FE0D4B322296
:102CF0001A600C4AFB6853600A4ABB689360094A31
:102D00007B68D3600748084900F012F8FFF79AFE85
:102D1000054B1B68002B02D00448FFF757F810370B
:102D2000BD4680BDA0050010B4050010585000003D
:102D300080B584B000AF78603960044BFB60FB68FD
:102D40007868396898471037BD4680BDF11FFF1F6E
:102D500080B582B000AF0E4A4FF4803323F0604359
:102D600023F07F0393604FF480331846FEF778F921
:102D70004FF4803304337B607B681B683B60FEF755
:102D8000B5F9FEF7E3F93B6898470837BD4680BDC3
:102D900000ED00E080B582B000AF03463960FB7102
:102DA0001346BB71FA79BB79104639681A46FEF7AB
:102DB0009FFA0837BD4680BD80B582B000AF03469C
:102DC0003960FB711346BB71BB79002B05D0FB79D1
:102DD00018463968FEF79EFA04E0FB791846396810
:102DE000FEF7A6FA0837BD4680BD00BF80B5ADF539
:102DF000835D82B000AF002307F5815202F1070224
:102E00001370002307F5815202F106021370CF4BB5
:102E10001B7803F00103DBB2002B00F0B387CB4B30
:102E20009B8840F26122934200F0448340F2612289
:102E3000934213DC742B00F09981742B06DC722B07
:102E400030D0732B00F01F8100F080BF752B00F095
:102E5000A781762B00F00E8200F078BF40F28B2223
:102E6000934200F0E484B3F5237F0BDA40F276223C
:102E7000934200F0388340F28A22934200F03A8372
:102E800000F064BF40F28D22934200F09885B3F5C4
:102E9000237F40F3028540F25642934200F041877F
:102EA00000F054BFAA48FEF791FFA84B5B7803F0EF
:102EB0000103DBB2002B07D0A648FEF787FFA34B28
:102EC000DB681846FEF7F4FFA348FEF77FFF07F123
:102ED0000803083B1A464FF48053104600211A4657
:102EE00001F0C8FF002307F5835202F104021360CA
:102EF0004FF4504307F583521360012307F58252C4
:102F000002F11C02136030E0904A07F5825303F18E
:102F10001C031B6813442033197807F10803083B8E
:102F200007F5835202F10402126813440A461A702C
:102F300007F583531B68043307F58352136007F5C5
:102F4000835303F104031B68013307F5835202F135
:102F50000402136007F5825303F11C031B6801335D
:102F600007F5825202F11C02136007F5835303F147
:102F700004031B68772BC7DD21E007F583531B682B
:102F80001B68D9B207F10803083B07F5835202F129
:102F90000402126813440A461A7007F583531B682B
:102FA000043307F58352136007F5835303F10403D9
:102FB0001B68013307F5835202F10402136007F521
:102FC000835303F104031B68B3F5805FD5DB634BC8
:102FD0001B680D200D211A46FFF780FE5F4B1B6812
:102FE0000D200D211A46FFF74FFE5C4B1B680D208C
:102FF0000D211A46FFF772FE584B1B68584AA2FB78
:1030000003239A0907F10803083B10464FF4504187
:103010001A464FF48053FFF7DBFD504B1B68504AB4
:10302000A2FB03239A0907F10803083B10464FF45B
:1030300050411A464FF48053FFF7F8FD002307F57F
:10304000825202F11802136014E0404A07F58253DD
:1030500003F118031B681344203330221A7007F55C
:10306000825303F118031B68013307F5825202F102
:103070001802136007F5825303F118031B68772BBE
:10308000E3DD00F07EBE3248FEF7A0FE2F4B5B78FA
:1030900003F00103DBB2002B07D02E48FEF796FEAB
:1030A0002A4BDB681846FEF703FF4FF4504307F541
:1030B000825202F114021360002307F5825202F1DA
:1030C0001002136026E007F5825303F114031B6816
:1030D000197807F10803083B07F5825202F1100244
:1030E000126813440A461A7007F5825303F1140359
:1030F0001B68013307F5825202F11402136007F5D1
:10310000825303F110031B68013307F5825202F169
:103110001002136007F5825303F110031B68772B2D
:10312000D1DD1048FEF752FE07F10803083B0022EC
:1031300083F8772007F10803083B1846FEF746FEA0
:103140000948FEF743FE00F01CBE00BF58160010F1
:103150007050000074500000785000000000001013
:10316000D34D62107C50000080500000C648FEF72E
:103170002DFEC64B5B7803F00103DBB2002B07D0BA
:10318000C348FEF723FEC14BDB681846FEF790FEEE
:10319000C048FEF71BFEC048FEF718FE00F0F1BD68
:1031A000B948FEF713FEB94B5B7803F00103DBB2BD
:1031B000002B07D0B648FEF709FEB44BDB68184673
:1031C000FEF776FE07F5805300221A6004330022D2
:1031D0001A60043300221A8002334FF4604307F56B
:1031E000825202F10C021360002307F5825202F1B1
:1031F0000802136029E007F5825303F108031B68F6
:10320000C3F1090307F5825202F10C021268127829
:1032100007F5835101F108010B4403F8682C07F509
:10322000825303F10C031B68013307F5825202F14C
:103230000C02136007F5825303F108031B68013386
:1032400007F5825202F10802136007F5825303F179
:1032500008031B68092BCEDD9048FEF7B7FD07F584
:10326000805318460A21FEF797FD8B48FEF7AEFD06
:1032700000F087BD8448FEF7A9FD844B5B7803F01E
:103280000103DBB2002B07D08148FEF79FFD7F4B87
:10329000DB681846FEF70CFE8148FEF797FD07F144
:1032A0000803083B1A464FF48053104600211A4683
:1032B00001F0E0FD012307F5825202F104021360E0
:1032C000002307F5815213604FF4604307F58252E3
:1032D00013604CE06D4A07F5825303F104031B6849
:1032E000134420331B782F2B0AD9684A07F58253E1
:1032F00003F104031B68134420331B78392B10D9C6
:103300006848FEF763FD614B002283F8972066480A
:10331000FEF75CFD07F5815303F106031B7800F00F
:103320004EBD07F5825303F104031B68C3F10A0283
:10333000564907F5825303F104031B680B442033FD
:10334000197807F10803083B995407F582531B6865
:10335000043307F58252136007F5825303F1040327
:103360001B68013307F5825202F10402136007F56E
:10337000825303F104031B680A2BABDD20E007F541
:10338000825303F104031B685A1E07F582531B681E
:103390001B68D9B207F10803083B995407F582531B
:1033A0001B68043307F58252136007F5825303F15B
:1033B00004031B68013307F5825202F10402136013
:1033C00007F5825303F104031B68B3F5805FD6DD74
:1033D000364B1B680E200E211A46FFF77FFC334B3D
:1033E0001B680E200E211A46FFF74EFC2F4B1B6860
:1033F0000E200E211A46FFF771FC2C4B1B682C4A3D
:10340000A2FB03239A0907F10803083B10464FF477
:1034100060411A464FF48053FFF7DAFB234B1B68D9
:10342000234AA2FB03239A0907F10803083B10462D
:103430004FF460411A464FF48053FFF7F7FB002327
:1034400007F5815202F11C02136014E00F4A07F5E0
:10345000815303F11C031B681344203330221A707C
:1034600007F5815303F11C031B68013307F58152F3
:1034700002F11C02136007F5815303F11C031B6862
:10348000772BE3DD00F07DBC705000005816001073
:103490007450000084500000805000007C500000F8
:1034A000785000008C5000007816001000000010CA
:1034B000D34D62104548FEF789FC454B5B7803F01D
:1034C0000103DBB2002B07D04248FEF77FFC404BE4
:1034D000DB681846FEF7ECFC3F48FEF777FC01F08E
:1034E00027F800F04EBC0020FDF782F8FFF730FC13
:1034F00000F047BC3548FEF769FC354B5B7803F0BC
:103500000103DBB2002B07D03248FEF75FFC304BE3
:10351000DB681846FEF7CCFC2F48FEF757FC2C4B17
:10352000DB692E4A13602D4B1B68002B04D02B4BFC
:103530001B68B3F5E02F04D92948FEF747FC00F0DB
:1035400020BC264B1B68002B00F06D81254B002210
:103550001A60254B01221A60FF2307F5805202F101
:103560001F021370002307F5815202F11402136049
:103570004FF4704307F5815202F11802136007F10E
:103580000803083B07F5815202F114021268134444
:1035900007F5805202F11F0212781A7007F5815365
:1035A00003F114031B68013307F5815202F1140281
:1035B000136007F5815303F118031B68013307F506
:1035C000815202F11802136037E000BF7050000012
:1035D000581600107450000078500000F4160010C7
:1035E000A4500000F01600105416001007F5815387
:1035F00003F118031B68197807F10803083B07F566
:10360000815202F11402126813440A461A7007F537
:10361000815303F118031B68013307F5815202F14E
:103620001802136007F5815303F114031B6801337B
:1036300007F5815202F11402136007F5815303F17B
:1036400014031B68B3F5805FD0DBBE4B1B680F20F3
:103650000F211A46FFF742FBBA4B1B680F200F21C0
:103660001A46FFF711FBB74B1B680F200F211A46B4
:10367000FFF734FBB34B1B68B34AA2FB03239A0941
:1036800007F10803083B10464FF470411A464FF407
:103690008053FFF79DFAAB4B1B68AB4AA2FB032399
:1036A0009A0907F10803083B10464FF470411A4687
:1036B0004FF48053FFF7BAFAA24B1B681020102179
:1036C0001A46FFF70BFB9F4B1B68102010211A4670
:1036D000FFF7DAFA9B4B1B68112011211A46FFF7FE
:1036E000FDFA984B1B68112011211A46FFF7CCFAFE
:1036F000944B1B68122012211A46FFF7EFFA914BE8
:103700001B68122012211A46FFF7BEFA8D4B1B6868
:10371000132013211A46FFF7E1FA8A4B1B68132086
:1037200013211A46FFF7B0FA864B1B6814201421A8
:103730001A46FFF7D3FA834B1B68142014211A464C
:10374000FFF7A2FA7F4B1B68152015211A46FFF7D9
:10375000C5FA7C4B1B68152015211A46FFF794FA11
:10376000784B1B68162016211A46FFF7B7FA754BDF
:103770001B68162016211A46FFF786FA714B1B6844
:10378000172017211A46FFF7A9FA6E4B1B6817205E
:1037900017211A46FFF778FA6A4B1B681820182180
:1037A0001A46FFF79BFA674B1B68182018211A4628
:1037B000FFF76AFA634B1B68192019211A46FFF7B5
:1037C0008DFA604B1B68192019211A46FFF75CFA25
:1037D0005C4B1B681A201A211A46FFF77FFA594BD7
:1037E0001B681A201A211A46FFF74EFA554B1B6820
:1037F0001B201B211A46FFF771FA524B1B681B2036
:103800001B211A46FFF740FA4E4B1B681C201C2157
:103810001A46FFF763FA4B4B1B681C201C211A4603
:10382000FFF732FAADE24948FEF7D0FAA9E248487C
:10383000FEF7CCFA474B5B7803F00103DBB2002BB9
:1038400007D04548FEF7C2FA424BDB681846FEF740
:103850002FFB4248FEF7BAFA4FF4704307F5805247
:1038600002F11802136007F5805303F118031B6877
:103870001B7807F5805202F1170213703748FEF7E4
:10388000A5FA07F5805303F117031B781846FEF7D6
:1038900073FA3348FEF79AFA73E22E4BDB69314A2A
:1038A0001360304B1B68002B04D02E4B1B68B3F504
:1038B000E02F03D92C48FEF789FA62E22B4B1B6CF0
:1038C00007F5805202F110021360002307F58152C0
:1038D00002F110021360234B1B6823F03F0307F52E
:1038E000805202F10C021360002307F5815202F1AD
:1038F0001002136019E007F5805303F110031A68F2
:1039000007F5815303F110031B6813441846402147
:10391000FEF742FA07F5815303F110031B684033A9
:1039200007F5815202F11002136007F5815303F18C
:1039300010031A6807F5805303F10C031B689A42C1
:10394000D9D31FE000000010D34D6210CC5000000E
:103950007050000058160010745000007C50000099
:1039600080500000F4160010E8500000444F0000A2
:1039700001204FF48041FDF793FC01204FF480417A
:10398000FDF7A2FC4448FEF7B7F903463F2BEFDDF5
:1039900007F5805303F110031A6807F5805303F10C
:1039A0000C031B681A443D4B1B6803F03F03104691
:1039B0001946FEF7F1F9394B00221A60E1E1384867
:1039C000FEF704FA374B5B7803F00103DBB2002B00
:1039D0000AD03548FEF7FAF9324BDB681846FEF795
:1039E00067FA304B0022DA603048FEF7EFF92D4BD2
:1039F000DB692A4A1360294B1B68002B04D0274B34
:103A00001B68B3F5E02F03D92948FEF7DFF9B8E1C9
:103A1000224B1B68002B00F08081264B00221A608D
:103A2000254B01221A60FF2307F5805202F10B0299
:103A30001370002307F5815202F1080213604FF45E
:103A4000704307F5815202F10C02136007F108037D
:103A5000083B07F5815202F108021268134407F58A
:103A6000805202F10B0212781A7007F5815303F1AC
:103A700008031B68013307F5815202F10802136045
:103A800007F5815303F10C031B68013307F58152DD
:103A900002F10C02136038E0EC050010F41600107F
:103AA0007050000058160010745000008050000044
:103AB000A4500000F01600105416001007F58153B2
:103AC00003F10C031B68197807F10803083B07F59D
:103AD000815202F10802126813440A461A7007F56F
:103AE000815303F10C031B68013307F5815202F186
:103AF0000C02136007F5815303F108031B680133BF
:103B000007F5815202F10802136007F5815303F1B2
:103B100008031B68B3F5805FD0DBAC4B1B680F203C
:103B20000F211A46FFF7DAF8A84B1B680F200F2168
:103B30001A46FFF7A9F8A54B1B680F200F211A465C
:103B4000FFF7CCF8A14B1B68A14AA2FB03239A09FB
:103B500007F10803083B10464FF470411A464FF432
:103B60008053FFF735F8994B1B68994AA2FB032352
:103B70009A0907F10803083B10464FF470411A46B2
:103B80004FF48053FFF752F8FDF720FD8F4B1B6871
:103B9000102010211A46FFF7A1F88C4B1B6810204B
:103BA00010211A46FFF770F8884B1B68112011216D
:103BB0001A46FFF793F8854B1B68112011211A460E
:103BC000FFF762F8814B1B68122012211A46FFF79B
:103BD00085F87E4B1B68122012211A46FFF754F815
:103BE0007A4B1B68132013211A46FFF777F8774B9F
:103BF0001B68132013211A46FFF746F8734B1B6806
:103C0000142014211A46FFF769F8704B1B68142022
:103C100014211A46FFF738F86C4B1B681520152144
:103C20001A46FFF75BF8694B1B68152015211A46E9
:103C3000FFF72AF8654B1B68162016211A46FFF776
:103C40004DF8624B1B68162016211A46FFF71CF828
:103C5000FDF7BCFC5D4B1B68172017211A46FFF7C8
:103C60003DF85A4B1B68172017211A46FFF70CF82E
:103C7000564B1B68182018211A46FFF72FF8534B94
:103C80001B68182018211A46FEF7FEFF4F4B1B68D1
:103C9000192019211A46FFF721F84C4B1B681920EF
:103CA00019211A46FEF7F0FF484B1B681A201A210B
:103CB0001A46FFF713F8454B1B681A201A211A46BB
:103CC000FEF7E2FF414B1B681B201B211A46FFF742
:103CD00005F83E4B1B681B201B211A46FEF7D4FF3C
:103CE0003A4B1B681C201C211A46FEF7F7FF374B86
:103CF0001B681C201C211A46FEF7C6FF334B1B68AD
:103D00001D201D211A46FEF7E9FF304B1B681D20C0
:103D10001D211A46FEF7B8FF33E02E48FEF756F88D
:103D20002FE02D4B1B7883F00103DBB2002B06D074
:103D3000294B01221A702948FEF774FA21E0264B1C
:103D400000221A702648FEF76DFA1AE02548FEF7A1
:103D50003DF8254B9B881846FEF7AAF8224B5B7866
:103D600003F00103DBB2002B07D02048FEF72EF84A
:103D70001D4BDB681846FEF79BF81D48FEF726F83A
:103D800018E017E01B48FEF721F8174B5B7803F0AB
:103D90000103DBB2002B0AD01448FEF717F8124BD0
:103DA000DB681846FEF784F80F4B0022DA601248F1
:103DB000FEF70CF807F5815303F106031B7818464C
:103DC00007F583570837BD4680BD00BF00000010CF
:103DD000D34D6210CC5000009D0500100C51000026
:103DE000245100003C51000058160010745000008F
:103DF000785000004C5100008050000080B586B023
:103E000000AFC7E902017A604FF000020C4BC7E92E
:103E1000042309E0D7E90401D7E9022300F048FDB3
:103E200002460B46C7E904237B685A1E7A60002BC2
:103E3000F0D1D7E90423104619461837BD4680BD96
:103E40000000F03F80B584B000AF78600023FB72C3
:103E50000023FB6009E07A68FB6813441B7818466E
:103E600000F0C2F8FB680133FB607B681A6CFB68EA
:103E70009A42F0DCFEF7BAFF0346FB72564B002273
:103E80005A75554A93786FF300039370524B9B78A1
:103E9000C3F30003D9B2504A537861F3C713537088
:103EA0004D4B5B78C3F3C013DBB21A464A4B1A750D
:103EB000494B1B7D03F00103D9B2474A537861F3A4
:103EC000C3035370444B5B78C3F3C003D9B2424A77
:103ED000537861F3820353703F4B5B78C3F38003E5
:103EE000D9B23D4A537861F3410353703A4B5B7842
:103EF000C3F34003D9B2384A137861F30003137057
:103F0000354B1B78C3F30003D9B2334A537861F3BE
:103F100000035370304B5B78C3F30003D9B22E4AD1
:103F2000137861F3C71313702B4B1B78C3F3C013C3
:103F3000D9B2294A137861F386131370264B1B7884
:103F4000C3F38013D9B2244A137861F34513137075
:103F5000214B1B78C3F34013D9B21F4A137861F386
:103F6000041313701C4B1B78C3F30013D9B21A4A05
:103F7000137861F3C3031370174B1B78C3F3C003AB
:103F8000D9B2154A137861F382031370124B1B7870
:103F9000C3F38003D9B2104A137861F3410313705D
:103FA0000D4B00229A750C4B0022DA600B4B00225D
:103FB0001A700B4B00225A60094B00221A700949F3
:103FC0004FF000024FF00003C1E90023FB7A1846CE
:103FD0001037BD4680BD00BF58160010C805001040
:103FE000CC050010D8050010B0B584B000AF014674
:103FF000F971F979F973F979602906D9F9797A298A
:1040000003D8F97921F02001F9717E490978002956
:1040100000F0DF80F979402902D9F9795A2909D9C4
:10402000F9792A2906D0F9790A2903D0F9790D29D5
:1040300040F0CF8074490978002908D07349D1E94C
:104040000001024681F000437049C1E900236D4B35
:104050001B782A3B2A2B00F2AC8001A252F823F0F5
:104060009B410000B3410000B3410000B341000098
:10407000B3410000B3410000B3410000B341000070
:10408000B3410000B3410000B3410000B341000060
:10409000B3410000B3410000B3410000B341000050
:1040A000B3410000B3410000B3410000B341000040
:1040B000B3410000B3410000B3410000854100005E
:1040C000B3410000B3410000B3410000B341000020
:1040D000B3410000B3410000B3410000B341000010
:1040E000B3410000B3410000B34100000D410000A6
:1040F00041410000B3410000B3410000B341000062
:10410000B34100006D410000574100003F4BD3E92F
:1041100000231046194600F08DFE03469AB23C4B30
:104120009A803B4B9B88722B03D0394B9B88762B14
:1041300005D1374A537843F01003537039E038E023
:10414000324BD3E900231046194600F073FE0246B5
:104150002F4BDA602DE02D4BD3E900231046194692
:1041600000F068FE02462A4B9A6122E0274BD3E911
:1041700000231046194600F035FE03469AB2244B40
:10418000DA8016E0214BD3E900231046194600F0EF
:1041900051FE02461E4BDA610BE01C4BD3E90023B3
:1041A0001046194600F046FE0346DAB2184B1A755F
:1041B00000BF144B00221A70134B00225A60124B9E
:1041C00000221A7011494FF000024FF00003C1E9BC
:1041D00000230F4B5B7803F01003DBB2002B31D0D0
:1041E000FB790A2B08D0FB790D2B05D0FB79202B0E
:1041F00002D0FB792A2B0DD1054A53786FF30413B3
:1042000053701FE0C8050010CC050010D805001041
:1042100058160010B44B9B7D772B13D8B24B9B7D67
:104220005A1CD1B2B04A91751A46AF4B1344FA7971
:1042300083F82020AC4B9B7D1A46AB4B13440022E5
:1042400083F82020A84B5B7803F00403DBB2002B3B
:1042500040F02981A44B5B7803F00803DBB2002B0C
:1042600040F02181A04B5B7803F01003DBB2002B00
:1042700040F01981FB79402B02D9FB795A2B02D9E6
:10428000FB792A2B02D1994AFB791370FB79283BE1
:10429000362B00F2B18001A252F823F0CD4300008A
:1042A000F9430000B5430000F9430000F943000062
:1042B000D9430000E7430000F9430000F943000040
:1042C000F9430000F9430000F9430000F9430000FE
:1042D000F9430000F9430000F9430000F9430000EE
:1042E000F9430000F9430000C1430000F943000016
:1042F000F9430000F9430000F9430000F9430000CE
:104300009D430000F9430000F9430000F943000019
:10431000F9430000F9430000F9430000F9430000AD
:10432000F9430000F9430000F9430000F94300009D
:104330007943000085430000F9430000F943000081
:10434000F9430000F9430000A94300009143000035
:10435000F9430000F9430000F9430000F94300006D
:10436000F9430000F9430000F9430000F94300005D
:10437000F9430000C14300005B4A137843F0010396
:1043800013708FE0584A537843F00103537089E06B
:10439000554A537843F08003537083E0524A937830
:1043A00043F0010393707DE04F4A137843F04003DC
:1043B000137077E04C4A537843F00203537071E076
:1043C000494A537843F0040353706BE0464A5378EC
:1043D00043F00803537065E0454B01221A70444BCB
:1043E00000225A605EE0424B5B68002B03D1404BD9
:1043F00001225A6056E055E0FB792F2B52D9FB7908
:10440000392B4FD83A4B5B68002B1ED1394BD3E97F
:104410000023104619464FF00002374B00F048FACF
:1044200002460B4614461D46FB79303B184600F009
:10443000D9F902460B462046294600F087F8024685
:104440000B462C49C1E9002322E0FB79303B18469A
:1044500000F0C8F904460D46254B5B684FF000009C
:1044600025491A46FFF7CAFC02460B462046294654
:1044700000F048FB02460B46104619461D4BD3E997
:10448000002300F063F802460B461A49C1E90023F5
:10449000174B5B68002B05D0154B5B680133144A42
:1044A00053600FE00EE0104B5B7803F00803DBB2C3
:1044B000002B07D0FB79292B04D10B4A53786FF3DB
:1044C000C3035370084B5B7803F00203DBB2002B8D
:1044D00006D1054B5A7DFB7B5340DAB2024B5A752D
:1044E0001037BD46B0BD00BF58160010C8050010FB
:1044F000CC050010D80500100000244080B400AFA7
:10450000BFF34F8FBD465DF8047B704780B500AFA9
:104510000549054BDB6803F4E062044B1343CB60B1
:10452000FFF7ECFFFEE700BF00ED00E00400FA0536
:1045300080B500AFFFF7EAFF0023184680BD00BF3B
:1045400081F0004102E000BF83F0004330B54FEA44
:1045500041044FEA430594EA050F08BF90EA020FB1
:104560001FBF54EA000C55EA020C7FEA645C7FEA44
:10457000655C00F0E2804FEA5454D4EB5555B8BF67
:104580006D420CDD2C4480EA020281EA030382EAD8
:10459000000083EA010180EA020281EA0303362D6A
:1045A00088BF30BD11F0004F4FEA01314FF4801C3D
:1045B0004CEA113102D0404261EB410113F0004F4F
:1045C0004FEA03334CEA133302D0524263EB430306
:1045D00094EA050F00F0A780A4F10104D5F1200EA4
:1045E0000DDB02FA0EFC22FA05F2801841F10001FF
:1045F00003FA0EF2801843FA05F359410EE0A5F1D3
:1046000020050EF1200E012A03FA0EFC28BF4CF003
:10461000020C43FA05F3C01851EBE37101F00045B9
:1046200007D54FF0000EDCF1000C7EEB00006EEBC6
:104630000101B1F5801F1BD3B1F5001F0CD3490850
:104640005FEA30004FEA3C0C04F101044FEA4452A7
:1046500012F5800F80F09A80BCF1004F08BF5FEA2E
:10466000500C50F1000041EB045141EA050130BD0E
:104670005FEA4C0C404141EB010111F4801FA4F1B1
:104680000104E9D191F0000F04BF01460020B1FA06
:1046900081F308BF2033A3F10B03B3F120020CDA3E
:1046A0000C3208DD02F1140CC2F10C0201FA0CF01C
:1046B00021FA02F10CE002F11402D8BFC2F1200C81
:1046C00001FA02F120FA0CFCDCBF41EA0C01904037
:1046D000E41AA2BF01EB0451294330BD6FEA040480
:1046E0001F3C1CDA0C340EDC04F11404C4F120026B
:1046F00020FA04F001FA02F340EA030021FA04F37D
:1047000045EA030130BDC4F10C04C4F1200220FAD3
:1047100002F001FA04F340EA0300294630BD21FA11
:1047200004F0294630BD94F0000F83F4801306BFD7
:1047300081F480110134013D4EE77FEA645C18BFCB
:104740007FEA655C29D094EA050F08BF90EA020F62
:1047500005D054EA000C04BF1946104630BD91EA5A
:10476000030F1EBF0021002030BD5FEA545C05D15D
:104770004000494128BF41F0004130BD14F580049C
:104780003CBF01F5801130BD01F0004545F0FE4110
:1047900041F470014FF0000030BD7FEA645C1ABF45
:1047A000194610467FEA655C1CBF0B46024650EA7C
:1047B000013406BF52EA033591EA030F41F40021A8
:1047C00030BD00BF90F0000F04BF0021704730B52E
:1047D0004FF4806404F132044FF000054FF0000103
:1047E00050E700BF90F0000F04BF0021704730B5C4
:1047F0004FF4806404F1320410F0004548BF404299
:104800004FF000013EE700BF42004FEAE2014FEAED
:1048100031014FEA02701FBF12F07F4393F07F4FC8
:1048200081F06051704792F0000F14BF93F07F4FFA
:10483000704730B54FF4607401F0004521F000413D
:1048400020E700BF50EA010208BF704730B54FF0C3
:1048500000050AE050EA010208BF704730B511F0C8
:10486000004502D5404261EB41014FF4806404F100
:1048700032045FEA915C3FF4DCAE4FF003025FEA82
:10488000DC0C18BF03325FEADC0C18BF033202EB0A
:10489000DC02C2F1200300FA03FC20FA02F001FA64
:1048A00003FE40EA0E0021FA02F11444C1E600BF03
:1048B00070B54FF0FF0C4CF4E06C1CEA11541DBFB6
:1048C0001CEA135594EA0C0F95EA0C0F00F0DEF881
:1048D0002C4481EA030621EA4C5123EA4C5350EA66
:1048E000013518BF52EA033541F4801143F48013B7
:1048F00038D0A0FB02CE4FF00005E1FB02E506F048
:104900000042E0FB03E54FF00006E1FB03569CF09C
:10491000000F18BF4EF0010EA4F1FF04B6F5007FA2
:1049200064F5407404D25FEA4E0E6D4146EB060614
:1049300042EAC62141EA55514FEAC52040EA5E509D
:104940004FEACE2EB4F1FD0C88BFBCF5E06F1ED847
:10495000BEF1004F08BF5FEA500E50F1000041EB7E
:10496000045170BD06F0004646EA010140EA02002B
:1049700081EA0301B4EB5C04C2BFD4EB0C0541EA4D
:10498000045170BD41F480114FF0000E013C00F362
:10499000AB8014F1360FDEBF002001F0004170BD86
:1049A000C4F10004203C35DA0C341BDC04F114049F
:1049B000C4F1200500FA05F320FA04F001FA05F22B
:1049C00040EA020001F0004221F0004110EBD370F8
:1049D00021FA04F642EB06015EEA430E08BF20EA24
:1049E000D37070BDC4F10C04C4F1200500FA04F3C7
:1049F00020FA05F001FA04F240EA020001F0004159
:104A000010EBD37041F100015EEA430E08BF20EACB
:104A1000D37070BDC4F1200500FA05F24EEA020E13
:104A200020FA04F301FA05F243EA020321FA04F042
:104A300001F0004121FA04F220EA020000EBD370F9
:104A40005EEA430E08BF20EAD37070BD94F0000FF9
:104A50000FD101F00046400041EB010111F4801F2D
:104A600008BF013CF7D041EA060195F0000F18BFDE
:104A7000704703F00046520043EB030313F4801F1A
:104A800008BF013DF7D043EA0603704794EA0C0FD4
:104A90000CEA135518BF95EA0C0F0CD050EA4106EA
:104AA00018BF52EA4306D1D181EA030101F0004167
:104AB0004FF0000070BD50EA410606BF104619468F
:104AC00052EA430619D094EA0C0F02D150EA01369B
:104AD00013D195EA0C0F05D152EA03361CBF1046DC
:104AE00019460AD181EA030101F0004141F0FE417B
:104AF00041F470014FF0000070BD41F0FE4141F4FF
:104B0000780170BD70B54FF0FF0C4CF4E06C1CEAFE
:104B100011541DBF1CEA135594EA0C0F95EA0C0FB3
:104B200000F0A7F8A4EB050481EA030E52EA03356E
:104B30004FEA013100F088804FEA03334FF080558F
:104B400045EA131343EA12634FEA022245EA1115BC
:104B500045EA10654FEA00260EF000419D4208BF6D
:104B6000964244F1FD0404F5407402D25B084FEA1A
:104B70003202B61A65EB03055B084FEA32024FF4C6
:104B800080104FF4002CB6EB020E75EB030E22BF23
:104B9000B61A754640EA0C005B084FEA3202B6EBE3
:104BA000020E75EB030E22BFB61A754640EA5C0092
:104BB0005B084FEA3202B6EB020E75EB030E22BF22
:104BC000B61A754640EA9C005B084FEA3202B6EB23
:104BD000020E75EB030E22BFB61A754640EADC00E2
:104BE00055EA060E18D04FEA051545EA16754FEA44
:104BF00006164FEAC30343EA52734FEAC2025FEA62
:104C00001C1CC0D111F4801F0BD141EA00014FF0F0
:104C100000004FF0004CB6E711F4801F04BF0143C1
:104C20000020B4F1FD0C88BFBCF5E06F3FF6AFAEDD
:104C3000B5EB030C04BFB6EB020C5FEA500C50F16D
:104C4000000041EB045170BD0EF0004E4EEA1131F0
:104C500014EB5C04C2BFD4EB0C0541EA045170BDF7
:104C600041F480114FF0000E013C90E645EA060E3B
:104C70008DE60CEA135594EA0C0F08BF95EA0C0F69
:104C80003FF43BAF94EA0C0F0AD150EA01347FF4B1
:104C900034AF95EA0C0F7FF425AF104619462CE788
:104CA00095EA0C0F06D152EA03353FF4FDAE1046EB
:104CB000194622E750EA410618BF52EA43067FF43C
:104CC000C5AE50EA41047FF40DAF52EA43057FF4CC
:104CD000EBAE12E74FF0FF3C06E000BF4FF0010CD7
:104CE00002E000BF4FF0010C4DF804CD4FEA410C3B
:104CF0007FEA6C5C4FEA430C18BF7FEA6C5C1BD008
:104D000001B050EA410C0CBF52EA430C91EA030F88
:104D100002BF90EA020F0020704710F1000F91EAE5
:104D2000030F58BF994208BF90422CBFD8176FEAB3
:104D3000E37040F0010070474FEA410C7FEA6C5C81
:104D400002D150EA013C07D14FEA430C7FEA6C5C88
:104D5000D6D152EA033CD3D05DF8040B704700BFB4
:104D60008446104662468C461946634600E000BF02
:104D700001B5FFF7B7FF002848BF10F1000F01BDD4
:104D80004DF808EDFFF7F4FF0CBF012000205DF89F
:104D900008FB00BF4DF808EDFFF7EAFF34BF012024
:104DA00000205DF808FB00BF4DF808EDFFF7E0FFBD
:104DB00094BF012000205DF808FB00BF4DF808ED0E
:104DC000FFF7CEFF94BF012000205DF808FB00BF75
:104DD0004DF808EDFFF7C4FF34BF012000205DF857
:104DE00008FB00BF4FEA410212F5001215D211D59F
:104DF0006FF47873B3EB625212D94FEAC12343F0D8
:104E0000004343EA505311F0004F23FA02F018BF59
:104E1000404270474FF00000704750EA013005D122
:104E200011F0004008BF6FF0004070474FF00000E5
:104E3000704700BF4A0011D212F5001211D20DD5F1
:104E40006FF47873B3EB62520ED44FEAC12343F090
:104E5000004343EA505323FA02F070474FF000003A
:104E6000704750EA013002D14FF0FF3070474FF0E9
:104E70000000704770B4840746D0541E002A41D009
:104E8000CDB2034602E0621EE4B3144603F8015BB0
:104E90009A07F8D1032C2ED9CDB245EA05250F2C5F
:104EA00045EA054519D9264603F11002103E0F2E9A
:104EB00042F8105C42F80C5C42F8085C42F8045C72
:104EC00002F11002F2D8A4F1100222F00F0204F055
:104ED0000F041032032C13440DD91E462246043A07
:104EE000032A46F8045BFAD8221F22F00302043298
:104EF000134404F003042CB1C9B21C4403F8011B91
:104F0000A342FBD170BC704714460346C2E700BF02
:104F100044616E6765723A20736563746F72206FC7
:104F2000766572666C6F770A0000000050726F62DF
:104F30006C656D2077726974696E67207365637440
:104F40006F720A0000000000001000000020000046
:104F50000030000000400000005000000060000031
:104F600000700000008000000090000000A0000021
:104F700000B0000000C0000000D0000000E0000011
:104F800000F00000000001000080010000000200AD
:104F90000080020000000300008003000000040005
:104FA00000800400000005000080050000000600ED
:104FB0000080060000000700008007004572726F45
:104FC000723A2072656164696E6720736572696107
:104FD0006C200A00200000004572726F723A207047
:104FE0007265706172696E6720746F207772697480
:104FF0006520646174610A004572726F723A2077AD
:10500000726974696E6720646174610A000000004F
:105010004572726F723A20766572696679696E6759
:1050200020646174610A00004572726F723A2065F3
:10503000726173696E6720646174610A0000000028
:105040004572726F723A20636F6D706172696E673C
:1050500020646174610A00004572726F723A2070B8
:105060007265706172696E6720646174610A000024
:105070006F6B2000204E3A000A0000002000000064
:105080000D0A0000342E332E31000000696E766167
:105090006C69642073657269616C206E756D626500
:1050A000720A0000696E76616C6964206E756D62CB
:1050B0006572206F6620627974657320746F207446
:1050C00072616E736665720A000000004572726F4D
:1050D000722065726173696E6720757365722066F0
:1050E0006C6173680A000000696E76616C69642007
:1050F0006E756D626572206F6620627974657320CB
:10510000746F20726561640A000000006F6B2044B8
:1051100065627567204D6F646520456E61626C65E0
:10512000640A00006F6B204465627567204D6F64F0
:10513000652044697361626C65640A006F6B20428C
:105140006164204D2D636F6465200000453A204264
:10515000616420636F6465202D206F6B0000000088
:10516000000000008051000000000010B0000000AE
:0451700050160000D5
:0851740050AFFF7F01000000B5
:1051800000E1F50512011001FF000040C929FF00F0
:1051900000010102030109022000010100C03209DF
:1051A00004000002FF0000000705050240000007A0
:1051B0000582024000000403090420034200450068
:1051C000450056004500520059004300520045007A
:1051D000410054004900560045002A0342004500A2
:1051E0004500540048004500460049005200530065
:1051F0005400200053004D004F004F005400480061
:105200004900450018033000300030003000300005
:10521000300030003000300030000000004000401E
:105220000080004000000940004009403078000044
:04000003000000C534
:00000001FF
