:1000000000800010C5000000110100001301000075
:100010001501000017010000190100000000000098
:100020000000000000000000000000001D010000B2
:100030001F010000000000002101000075190000F0
:10004000250100001D1900002919000035190000C4
:1000500041190000250100002501000025010000D4
:1000600025010000250100002501000025010000F8
:1000700025010000250100002501000025010000E8
:1000800025010000250100002501000025010000D8
:1000900025010000250100002501000025010000C8
:1000A00009170000250100002501000025010000BE
:1000B00025010000250100002501000025010000A8
:1000C000250100000B490C4A0C4B9A423EBF51F8E7
:1000D000040B42F8040BF8E700200949094A914251
:1000E0003CBF41F8040BFAE7074880470748004740
:1000F000FEE700003051000000000010A8000010D2
:10010000A8000010F8160010010F0000492500009B
:10011000FEE7FEE7FEE7FEE7FEE700BFFEE7FEE7DD
:10012000FEE7FEE7FEE7000080B586B000AFF860AE
:10013000B9607A60FB681B785B09DBB203F00303EC
:100140007B610A4B7A6953F822303B613B69002B93
:1001500001D1002305E03B69F868B9687A689847DF
:10016000034618461837BD4680BD00BFBC000010CE
:1001700080B584B000AF0346FB718020012100F000
:1001800067FA074BBB600023FB6002E0FB680133AA
:10019000FB60FB68072BF9DD1037BD4680BD00BF53
:1001A000A800001080B582B000AF0E4B1B68402B3A
:1001B000A8BF40237B600C4B1B68802019467A68DF
:1001C00000F068FA084B1A687B681A44064B1A60FC
:1001D000044B1A687B68D21A024B1A600837BD4676
:1001E00080BD00BFB4000010B000001080B584B026
:1001F00000AF02460B46FA71BB71FB79002B40F051
:100200009180BB7903F00403002B41D000204949C1
:10021000082200F08BFA474B1B785B09DBB203F036
:100220000303FB60444BFA6853F82220434B1A60E7
:10023000404BDB881A46424B1A603E4BDB881A461D
:10024000404B1A603B4BDB88002B07D0394B1B78A7
:10025000DB09DBB203F00103002B68D035483949D4
:10026000364AFFF761FF0346002B04D1BB791846DD
:10027000FFF77EFF5BE02F4BDB881A46314B1B6894
:100280009A42A8BF1A462E4B1A60FFF78BFF4EE02A
:100290002B4B1B68002B3EDD284B1A68284B1B6834
:1002A000002011461A4600F041FAB860BB68002BE6
:1002B00004DABB791846FFF75BFF38E01F4B1A687A
:1002C000BB681A441D4B1A601D4B1A68BB68D21AD2
:1002D0001B4B1A601A4B1B68002B28D1154B1B783F
:1002E0005B09DBB203F00303FB60134BFA6853F8BE
:1002F0002220124B1A600F481249104AFFF714FFD0
:100300000346002B04D1BB791846FFF731FF0EE0FE
:10031000FFF748FF0BE000200021002200F006FA62
:10032000B86004E0FB79802B01D1FFF73BFF103769
:10033000BD4680BDA8000010CC000010B000001029
:10034000B4000010B800001080B485B000AFF860B1
:10035000B9607A60074BFA68B96843F82210064B17
:10036000FA68796843F822101437BD465DF8047BBB
:10037000704700BFBC000010CC00001080B483B0F8
:1003800000AF786000BF084BD3F800227B681A40AA
:100390007B689A42F7D1044B7A68C3F808220C377D
:1003A000BD465DF8047B704700C0005080B582B048
:1003B00000AF0346FB71084B3022C3F80822064BFE
:1003C000FA79120442F4A062C3F810221020FFF759
:1003D000D5FF0837BD4680BD00C0005080B582B053
:1003E00000AF02460B46FA71BB80FB791846FFF757
:1003F000DDFF064BBA88120442F48072C3F8102263
:100400001020FFF7BBFF0837BD4680BD00C000507D
:1004100080B582B000AF0346FB71FB791846FFF749
:10042000C5FF094BFA79120442F40072C3F8102296
:100430002020FFF7A3FF044BD3F81432DBB2184699
:100440000837BD4680BD00BF00C0005080B582B0F7
:1004500000AF78600B467B800C4B0C4AD2F84412FC
:1004600001207A6800FA02F20A43C3F84422074BDB
:100470007A68C3F84822054B7A88C3F84C224FF4B7
:100480008070FFF77BFF0837BD4680BD00C000507D
:1004900080B582B000AF786039607B68DBB243F032
:1004A0004003DBB2DAB23B68002B01D0002300E04E
:1004B000202310461946FFF791FF0837BD4680BD3F
:1004C00080B584B000AF02460B46FA71BB80FB7961
:1004D00003F00F035A00FB79DB09DBB21343FB6027
:1004E000BB88F8681946FFF7B1FFF8680121FFF7EC
:1004F000CFFF1037BD4680BD80B485B000AF034646
:100500003960FB71FB7903F00F035A00FB79DB09BB
:10051000DBB21343FB60FB68DA0F13445B101A462F
:100520000D4B396843F822100C4B0C4AD2F83412A8
:100530000120FA6800FA02F20A43C3F83422074B9A
:10054000064AD2F8042242F00402C3F80422143707
:10055000BD465DF8047B7047E000001000C000500D
:1005600080B483B000AF7860074B7A681A60074B9D
:10057000064AD2F8042242F00802C3F804220C37DB
:10058000BD465DF8047B7047DC00001000C00050E1
:1005900080B483B000AF7860074B7A681A60074B6D
:1005A000064AD2F8042242F00102C3F804220C37B2
:1005B000BD465DF8047B70472001001000C000506C
:1005C00080B582B000AF0346FB71FB7963F07F0317
:1005D000DBB2D0201946FFF701FF0837BD4680BDCA
:1005E00080B582B000AF78607B68002B0CBF002321
:1005F0000123DBB2FE201946FFF7F0FE0837BD46A7
:1006000080BD00BF80B582B000AF0346FB71FB79AF
:100610009BB2F3201946FFF7E1FE0837BD4680BDC7
:1006200080B584B000AF0346FB71FB7903F00F0384
:100630005A00FB79DB09DBB21343FB60FB68DBB2DA
:100640001846FFF7E5FE034618461037BD4680BD45
:1006500080B584B000AF03463960FB71FB7903F0CD
:100660000F035A00FB79DB09DBB21343FB60FB6825
:10067000DBB243F04003DBB2DAB23B68002B0CBFC5
:1006800000230123DBB210461946FFF7A7FE1037FF
:10069000BD4680BD80B586B000AF0346B9607A60C4
:1006A000FB73FB7B03F00F035A00FB7BDB09DBB220
:1006B00013437B611C4BFA7B02F00F02920042F065
:1006C0000202C3F82822184B7A68C3F8242216E0E5
:1006D000154BBA68033212781106BA6802321278E2
:1006E00012041143BA680132127812021143BA6837
:1006F00012780A43C3F81C22BB680433BB600A4B60
:10070000D3F8283203F00203002BE1D17B69DBB27E
:100710001846FFF74BFEFA20FFF748FE7B681846A5
:100720001837BD4680BD00BF00C0005080B588B0FE
:1007300000AF0346B9607A60FB73FB7B03F00F03E5
:100740005A00FB7BDB09DBB213437B61294BFA7B4D
:1007500002F00F02920042F00102C3F82822254B5A
:10076000D3F820323B613B6903F40063002BF6D0E1
:100770003B6903F48063002B02D14FF0FF3335E077
:100780003B69C3F309033B610023BB610023FB61A9
:100790001BE0FB6903F00303002B03D1154BD3F8D7
:1007A0001832BB61BB68002B09D0FA697B689A429A
:1007B00005DAFB69BA681344BA69D2B21A70BB6928
:1007C0001B0ABB61FB690133FB61FA693B699A4211
:1007D000DFD3084B0022C3F828227B69DBB218461E
:1007E000FFF7E4FDF220FFF7E1FD3B6918462037F3
:1007F000BD4680BD00C0005080B582B000AF7860BB
:100800007B68002B0CBF00230123DBB2D8201946E4
:10081000FFF7E4FD0837BD4680BD00BF80B586B058
:1008200000AF5E4BD3F800323B613B6903F001033C
:10083000002B11D0594B0122C3F80822584B1B68DA
:10084000002B09D0F520FFF7E3FD0346FB81544B55
:100850001B68FA89104698473B6903F00803002B90
:100860002CD04E4B0822C3F80822FE20FFF7D0FD03
:1008700003467B737B7B03F01A03002B1ED07B7B2C
:1008800003F00103002B0CBF00230123DBB2DAB21B
:100890007B7B03F00403DBB21343DAB27B7B03F010
:1008A0001003DBB21343DBB23B733E4B1B68002BE0
:1008B00004D03C4B1B683A7B104698473B6903F0D9
:1008C0000403002B67D0354B0422C3F80822002311
:1008D0007B615DE001227B6902FA03F3BB602F4B71
:1008E000D3F83022BB681340002B4ED02B4BBA6894
:1008F000C3F838222020FFF741FD284BD3F81432EB
:10090000FB71FB7903F00103002B0CBF00230123D3
:10091000DBB2DAB2FB7903F00203DBB21343DAB2E3
:10092000FB7903F00403DBB21343DAB2FB7903F083
:100930001003DBB21343DAB2FB7903F00803DBB236
:100940001343DBB23B737B69DA0F13445B101A4627
:10095000154B53F82230002B17D07B69DA0F134464
:100960005B101A46104B53F822307A69D201D1B28B
:100970007A695210D2B202F00F02D2B20A43D2B256
:10098000D1B23A7B0846114698477B6901337B61B7
:100990007B691F2B9EDD1837BD4680BD00C000500F
:1009A00020010010DC000010E000001080B500AF56
:1009B0002D4B2D4A126922F440221A612A4B2A4AF1
:1009C000126942F480221A61274A274BDB6823F020
:1009D000405323F03003D360234A234BDB6843F0BA
:1009E000005343F01003D3601F4B1F4A526822F09C
:1009F00070525A601C4B1C4A526842F0A0525A6016
:100A00001A4B1A4AD2F8C42042F00042C3F8C4205C
:100A1000174B1A22C3F8F42F00BF154BD3F8F83F39
:100A200003F01A031A2BF8D1114B0022C3F8042249
:100A30000F4B4FF0FF32C3F808220D4B0022C3F8D2
:100A40002C220B4B0022C3F83422094B4FF0FF320B
:100A5000C3F83822064B0022C3F840220020FFF7DB
:100A6000D1FD0123184680BD00C0024000C00F40E8
:100A700000C0005080B483B000AF0346FB710C3758
:100A8000BD465DF8047B704780B500AFFFF78EFF71
:100A90000D48FFF765FD00200C49FFF72DFD802074
:100AA0000A49FFF729FD00204021FFF709FD8020BA
:100AB0004021FFF705FD00200549064AFFF744FCE9
:100AC0000123184680BD00BF750A0000ED0100003B
:100AD000890E00002401001080B483B000AF78605C
:100AE000034B7A681A600C37BD465DF8047B70478B
:100AF0003401001080B489B000AFBA607B60034657
:100B0000FB810B46BB81FB891B0A9BB2FB75FB89F2
:100B1000BB751E4B1B68FB610023BB612AE0FB69B0
:100B200001331B78FA7D9A421FD1BA7DBB699A4284
:100B300018D17B68FA691A60FB7D022B0BD1FB6927
:100B400002331B781A46FB6903331B781B021A43D6
:100B5000BB681A6004E0FB691B781A46BB681A6020
:100B600001230CE0BB690133BB61FB691B78FA69A7
:100B70001344FB61FB691B78002BD0D1002318467E
:100B80002437BD465DF8047B704700BF3401001078
:100B900080B586B000AF02460B46FA71BB71FB7997
:100BA000002B03D10020FFF727FE44E0244B1B68F5
:100BB0007B61FF23FB74FF23BB7435E07B6901334A
:100BC0001B78042B08D0052B0AD0022B00D026E07E
:100BD0007B695B79FB7422E07B69DB78BB741EE088
:100BE000FA7CFB799A4219D1BA7CBB799A4215D129
:100BF0007B699B787B747B6904331B781A467B691D
:100C000005331B781B029BB213439BB2FB817A7C9A
:100C1000FB8910461946FFF753FCFFE700BF7B69CD
:100C20001B787A6913447B617B691B78002BC5D1E3
:100C30000120FFF7E1FD012318461837BD4680BDAE
:100C40003401001080B586B000AFF860B9607A60FA
:100C50007B681B687B61FB685B78092B52D801A21B
:100C600052F823F08D0C0000FD0C0000050D000073
:100C7000FD0C0000050D0000A30C0000B10C0000ED
:100C8000010D0000C90C0000D90C00007B69002296
:100C90001A707B69013300221A70BB6802221A6045
:100CA00032E0FB685B88DBB21846FFF789FC2BE07B
:100CB000FB685A88FB689B8810461946BA687B68AF
:100CC000FFF718FF034620E0124B1A787B691A7071
:100CD000BB6801221A6017E0FB685B88DBB218462C
:100CE0000021FFF755FF0346002B01D100230CE044
:100CF000FB685B88DAB2074B1A7005E0002304E05A
:100D0000002302E0002300E0012318461837BD4607
:100D100080BD00BF2C01001080B487B000AFF86028
:100D2000B9607A607B681B687B61FB685B780B2B22
:100D300038D801A252F823F0690D00007F0D0000A1
:100D4000A50D00007F0D0000A50D0000A50D000001
:100D5000A50D0000A50D0000A50D0000A50D0000CB
:100D6000830D0000910D00007B6900221A707B69E1
:100D7000013300221A70BB6802221A6014E00023BB
:100D800013E07B6900221A70BB6801221A600BE035
:100D9000FB685B88002B01D0002306E0BB680022C3
:100DA0001A6001E0002300E0012318461C37BD460D
:100DB0005DF8047B704700BF80B586B000AFF86077
:100DC000B9607A607B681B687B61FB685B780C2B81
:100DD00053D801A252F823F00D0E00003F0E000080
:100DE0007B0E00005B0E00007B0E00007B0E0000FF
:100DF0007B0E00007B0E00007B0E00007B0E0000CF
:100E00007B0E00007B0E0000770E0000FB689B88C5
:100E1000DBB21846FFF704FC034603F00203002B85
:100E20000CBF00230123DBB21A467B691A707B6971
:100E3000013300221A70BB6802221A601FE0FB68AF
:100E40005B88002B07D1FB689B88DBB2184600212A
:100E5000FFF7FEFB13E0002312E0FB685B88002B2A
:100E600007D1FB689B88DBB218460121FFF7F0FB36
:100E700005E0002304E0002302E0002300E001235A
:100E800018461837BD4680BD80B584B000AFF86005
:100E9000B9607A60194B1B68002B0AD0174B1B688E
:100EA000F868B9687A6898470346002B01D0012397
:100EB0001FE0FB681B7803F01F03012B0AD0022BF5
:100EC0000FD0002B14D1F868B9687A68FFF7BAFE22
:100ED00003460EE0F868B9687A68FFF71DFF03461D
:100EE00007E0F868B9687A68FFF766FF034600E034
:100EF000002318461037BD4680BD00BF30010010EA
:100F000080B400AF4D4B2022C3F8A02100BF4B4B53
:100F1000D3F8A03103F04003002BF8D0474B032255
:100F2000C3F80421454B0022C3F8A821434B0022FB
:100F3000C3F8AC21414B0122C3F80C213F4B404A7E
:100F4000C3F884203D4BAA22C3F88C203B4B55228A
:100F5000C3F88C20394B0122C3F88020374BAA22DA
:100F6000C3F88C20354B5522C3F88C2000BF334B7F
:100F7000D3F8883003F08063002BF8D02F4B032286
:100F8000C3F880202D4BAA22C3F88C202B4B55226E
:100F9000C3F88C2000BF294BD3F8883003F040738E
:100FA000002BF8D0254B2322C3F8A420234BAA22E0
:100FB000C3F88C20214BAA22C3F8AC201F4B55222A
:100FC000C3F8AC201D4B0122C3F8A0201B4BAA2262
:100FD000C3F8AC20194B5522C3F8AC2000BF174B07
:100FE000D3F8A83003F48063002BF8D0134B03220E
:100FF000C3F8A020114BAA22C3F8AC200F4B5522F6
:10100000C3F8AC2000BF0D4BD3F8A83003F44073F5
:10101000002BF8D0094B0B4AC3F8C420074B002221
:10102000C3F8C821054B054A126822F4704242F405
:1010300080421A60BD465DF8047B704700C00F40D7
:1010400063000500DE872804034683F309887047A0
:1010500080B483B000AF0346FB71084B97F90720BB
:101060005209F97901F01F01012000FA01F143F85A
:1010700022100C37BD465DF8047B704700E100E0AC
:1010800080B483B000AF03463960FB7197F9073035
:10109000002B0BDA0D49FB7903F00F03043B3A6890
:1010A000D2B2D200D2B20B441A7609E0084997F9BD
:1010B00007303A68D2B2D200D2B20B4483F8002390
:1010C0000C37BD465DF8047B704700BF00ED00E0C3
:1010D00000E100E080B483B000AF154B4FF0FF3269
:1010E000C3F88020124B0122C3F88420104B4FF02C
:1010F000FF32C3F880210E4B0122C3F884210C4B30
:10110000002283F800230123FB7108E0084AFB79E1
:101110001344782283F80023FB790133FB71FB79B8
:101120001F2BF3D90C37BD465DF8047B704700BF19
:1011300000E100E080B582B000AF1B4B4FF02062B1
:101140005A60194B00229A60174B184ADA60164B06
:1011500000221A61144B00225A610023FB7107E040
:10116000114AFB79134400221A76FB790133FB7193
:10117000FB791F2BF4D90C4B00225A620A4B4FF01B
:10118000FF329A62084B4FF0FF32DA62064B4FF0A3
:10119000FF321A6300200021FFF772FF0020FFF7E3
:1011A00057FF0837BD4680BD00ED00E00000FA059E
:1011B00080B483B000AF7860034B7A689A600C37D4
:1011C000BD465DF8047B704700ED00E080B485B05B
:1011D00000AF0346FB710023FB60FB79042B1CD896
:1011E00001A252F823F000BFFD110000031200001D
:1011F000091200000F120000151200000B4BFB60DB
:101200000CE00B4BFB6009E00A4BFB6006E00A4B6D
:10121000FB6003E0094BFB6000E000BFFB68184681
:101220001437BD465DF8047B704700BF00C009203D
:1012300020C0092040C0092060C0092080C00920CA
:1012400080B584B000AF396013460246FA71BB71B5
:10125000FB791846FFF7BAFFF860FB68002B10D047
:10126000BB79002B06D0FB681A683B681A43FB6801
:101270001A6006E0FB681A683B68DB431A40FB68AB
:101280001A601037BD4680BD80B584B000AF0346FC
:101290003960FB71FB791846FFF798FFF860FB682F
:1012A000002B02D0FB683A689A611037BD4680BDBA
:1012B00080B584B000AF03463960FB71FB791846F6
:1012C000FFF784FFF860FB68002B02D0FB683A68E8
:1012D000DA611037BD4680BD80B582B000AF39609D
:1012E00013460246FA71BB71FA79BB791046396828
:1012F0001A46FFF7A5FF0837BD4680BD80B582B00E
:1013000000AF03463960FB71FB7918463968FFF777
:10131000BBFF0837BD4680BD80B582B000AF034635
:101320003960FB71FB7918463968FFF7C1FF083750
:10133000BD4680BD80B485B000AF786039607B6801
:101340001F2B02D97B68203B00E07B68FB607B6839
:101350001F2B17D8194B194AD2F8A811FA68032085
:1013600000FA02F2D2430A40C3F8A821134B134AF1
:10137000D2F8A811FA68386800FA02F20A43C3F8F2
:10138000A82116E00D4B0D4AD2F8AC11FA680320E3
:1013900000FA02F2D2430A40C3F8AC21074B074AD5
:1013A000D2F8AC11FA68386800FA02F20A43C3F8BE
:1013B000AC211437BD465DF8047B704700C00F4078
:1013C00080B400AF62B6BD465DF8047B704700BFD5
:1013D00080B400AF72B6BD465DF8047B704700BFB5
:1013E00080B584B000AF03463960FB710023FB6019
:1013F0000023BB60FB79012B1AD0022B69D0002B94
:1014000000D07DE0414BFB60FA68414BA3FB021327
:101410009B0C3A68920802FB03F3BB60BB68FE2B8F
:1014200005D94FF08043BA685A60012369E067E04C
:10143000384B1B689B08FB60FA68354BA3FB021313
:101440009B0C3A68920802FB03F3BB60BB68FE2B5F
:1014500009D900200021FFF76DFF4FF08043BA68E3
:101460005A6001234DE02B4B1B685B08FB60FA6858
:10147000274BA3FB02139B0C3A68920802FB03F371
:10148000BB60BB68FE2B09D900200221FFF752FF89
:101490004FF08043BA685A60012332E01D4B1B684D
:1014A000FB60FA681A4BA3FB02139B0C3A68920884
:1014B00002FB03F3BB60BB68FE2B09D900200121AE
:1014C000FFF738FF4FF08043BA685A60012318E0F5
:1014D00016E04FF40043FB60FA680D4BA3FB0213C8
:1014E0009B0C3A68920802FB03F3BB60BB68FE2BBF
:1014F00005D94FF08043BA685A60012301E000BF6C
:10150000002318461037BD4680BD00BF00093D00CE
:1015100083DE1B430000001080B582B000AF02469E
:101520000B46FA71BB7100200021FFF703FF4FF05B
:1015300080434FF08042126922F003021A614FF09B
:1015400080434FF080421169FA790A431A61BB79EE
:10155000012B09D14FF080434FF080421278D2B274
:1015600042F00202D2B21A700837BD4680BD00BFF9
:1015700080B584B000AF78604FF080431B69FB609A
:10158000FB6803F00303FB60FB68DBB21846796875
:10159000FFF726FF4FF080434FF080421278D2B21F
:1015A00042F00102D2B21A7000F004F81037BD46C2
:1015B00080BD00BF80B500AFFFF70AFF4FF080434A
:1015C000AA221A724FF0804355221A72FFF7F8FED2
:1015D00080BD00BF80B483B000AF0346FB71084BF1
:1015E00097F907205209F97901F01F01012000FA4B
:1015F00001F143F822100C37BD465DF8047B7047BB
:1016000000E100E080B586B000AF02460B46FA71FB
:10161000BB7100233B61144800F076FB38613B69E5
:101620003F2B00DC1CE0FB79184610494022FFF7F5
:101630007DF8F86000237B610EE00C4A7B6913445F
:101640001B780948194600F0A7FA0346002B00D181
:1016500006E07B6901337B617A69FB689A42ECDBC7
:101660001837BD4680BD00BFD805001038050010F2
:1016700080B584B000AF02460B46FA71BB711648C4
:1016800000F010FB0346002B03D10020FEF7BAFF49
:101690001EE00023FB600DE0FA68104B13440E4877
:1016A000194600F0BBFA0346002B00D105E0FB68A9
:1016B0000133FB60FB683F2BEEDDFB68BB60BB6862
:1016C000002B05DDFB7918460449BA68FEF7E2FFF6
:1016D0001037BD4680BD00BFE4050010380500107E
:1016E00080B582B000AF0346FB80064800F0DAFA0E
:1016F0000346002B02DD2020FEF784FF0837BD469D
:1017000080BD00BFE405001080B500AFFFF786F88C
:1017100080BD00BF80B586B000AF3B4600221A6096
:10172000043300221A60043300221A8002334FF47B
:1017300060437B6100233B610023FB6015E0FB6895
:10174000C3F109037A69127807F118010B4403F811
:10175000182C7B6901337B617B691B78FF2B01D0DF
:1017600001233B61FB680133FB60FB68092BE6DD6D
:101770003B69012B27D13A78254B83F87A207A7878
:10178000234B83F87C20BA78214B83F87E20FA78AB
:101790001F4B83F880203A791D4B83F882207A7999
:1017A0001B4B83F88420BA79194B83F88620FA7989
:1017B000174B83F888203A7A154B83F88A207A7A77
:1017C000134B83F88C20FFF75FF91148FFF784F97A
:1017D00082201049FEF790FE05200F49FEF78CFE8F
:1017E0000E48FEF7D5FE2020FEF70CFF0C480D49F1
:1017F00000F0A2F90C480D4900F09EF91820FFF7FF
:10180000E9FE0120FEF7ECFE1837BD4680BD00BFA3
:10181000040000107116000005160000E11600001B
:10182000D805001038030010E4050010380100103E
:1018300080B483B000AF03463960FB7197F907307D
:10184000002B0BDA0D49FB7903F00F03043B3A68D8
:10185000D2B2D200D2B20B441A7609E0084997F905
:1018600007303A68D2B2D200D2B20B4483F80023D8
:101870000C37BD465DF8047B704700BF00ED00E00B
:1018800000E100E080B582B000AF78607B68B3F122
:10189000807F01D3012311E00A4B7A6822F07F4256
:1018A000013A5A604FF0FF301F21FFF7C1FF054B8F
:1018B00000229A60034B07221A600023184608375B
:1018C000BD4680BD10E000E080B584B000AF0346A7
:1018D000FB80FA880F4B53F822301B68FB60FA88B4
:1018E0000C4B53F82230FA681A60FA880A4B53F806
:1018F0002230002B0AD0FA88074B53F82230FA889E
:101900009100054A0A441046F96898471037BD46C9
:1019100080BD00BF940000108405001080B500AFAA
:101920000020FFF7D1FF80BD80B500AF0120FFF799
:10193000CBFF80BD80B500AF0220FFF7C5FF80BDA3
:1019400080B500AF0320FFF7BFFF80BD80B500AFBB
:10195000064B1A68064BA3FB02139B091846FFF7B8
:1019600091FF0346002B00D0FEE780BD0000001071
:10197000D34D621080B582B000AF294B1B685A1C52
:10198000274B1A60274B1B780133DAB2254B1A70AC
:10199000244B1B78632B02D9224B00221A70224B56
:1019A0001B687B6036E07B681B7C03F00103DBB2C5
:1019B000002B2CD07B689B68002B04D07B689B6835
:1019C0005A1E7B689A607B689B68002B1FD17B68DE
:1019D0001B7CDBB29B0803F00103DBB2002B04D0BD
:1019E0007B68DA687B689A6004E07A68137C6FF33E
:1019F000000313747A68137C43F0020313747B684A
:101A00005B68002B03D07B685B68786898477B68CD
:101A10001B687B607B68002BC5D10837BD4680BD45
:101A200078050010940500107C05001080B483B088
:101A300000AF78607B6800221A600C4B1B68002B9B
:101A400006D10A4B7A681A60094B7A681A6006E078
:101A5000074B1B687A681A60054B7A681A60012385
:101A600018460C37BD465DF8047B70477C050010B6
:101A70008005001080B485B000AFF860B9607A606E
:101A8000FB68BA68DA60FB68DA68FB689A60FB6832
:101A90007A685A60FA68137C6FF341031374FA682A
:101AA000137C43F0010313741437BD465DF8047BC7
:101AB000704700BF80B400AF62B6BD465DF8047BDE
:101AC000704700BF80B400AF72B6BD465DF8047BBE
:101AD000704700BF80B483B000AF0346FB71084B72
:101AE00097F907205209F97901F01F01012000FA46
:101AF00001F143F822100C37BD465DF8047B7047B6
:101B000000E100E080B483B000AF0346FB71094BF5
:101B100097F907205209F97901F01F01012000FA15
:101B200001F1203243F822100C37BD465DF8047BEA
:101B3000704700BF00E100E080B483B000AF786080
:101B400039607B6800221A607B6800225A607B68DB
:101B50003A689A600C37BD465DF8047B704700BF59
:101B600080B584B000AF78600B46FB701820FFF79B
:101B7000C9FFFB787868194600F00EF80346FB733E
:101B80002020FEF73FFD1820FFF7A4FFFB7B18463F
:101B90001037BD4680BD00BF80B485B000AF78600F
:101BA0000B46FB707B681B685A1C114B1340002BC3
:101BB00005DA013B6FEAC3536FEAD3530133FB608D
:101BC0007B685A68FB689A4201D100230AE07B686F
:101BD0009A687B681B681344FA781A707B68FA6805
:101BE0001A60012318461437BD465DF8047B704720
:101BF000FF01008080B584B000AF78603960FFF7E6
:101C000061FF7868396800F009F80346FB73FFF755
:101C100051FFFB7B18461037BD4680BD80B485B0B0
:101C200000AF786039607B681A687B685B689A42AD
:101C300001D100231AE07B685B685A1C0E4B1340ED
:101C4000002B05DA013B6FEAC3536FEAD35301332C
:101C5000FB607B689A687B685B6813441B78DAB228
:101C60003B681A707B68FA685A600123184614377B
:101C7000BD465DF8047B7047FF01008080B584B0ED
:101C800000AF78601820FFF73DFF786800F00AF891
:101C9000F8601820FFF71EFFFB6818461037BD4696
:101CA00080BD00BF80B483B000AF78607B681B68E4
:101CB00003F500727B685B68D21A084B1340002B57
:101CC00005DA013B6FEAC3536FEAD3530133184679
:101CD0000C37BD465DF8047B704700BFFF010080F4
:101CE00080B584B000AF78601820FFF70BFF7868EC
:101CF00000F00AF8F8601820FFF7ECFEFB681846C1
:101D00001037BD4680BD00BF80B582B000AF78609F
:101D10007868FFF7B3FF0346C3F5FF730133184636
:101D20000837BD4680BD00BF80B500AF0248FFF751
:101D3000A5FF0346184680BDD805001080B582B0C7
:101D400000AF0023FB71FB1D04481946FFF752FF4B
:101D5000FB7918460837BD4680BD00BFD805001086
:101D600080B582B000AF0346FB71FB79034819468A
:101D7000FFF7F6FE0837BD4680BD00BFE405001042
:101D800080B584B000AF786039600023FB6009E063
:101D9000FB687A6813441B781846FFF7E1FFFB687D
:101DA0000133FB60FA683B689A42F1DB1037BD46AD
:101DB00080BD00BF80B584B000AF78600023FB73A6
:101DC00003E0BB7B1846FFF7CBFFFB7B5A1CFA7383
:101DD0007A6813441B78BB73BB7B002BF1D110379F
:101DE000BD4680BD80B582B000AF0346FB71FB7974
:101DF00003F00F03FB71FB79092B06D8FB79303315
:101E0000DBB21846FFF7ACFF05E0FB793733DBB2F6
:101E10001846FFF7A5FF0837BD4680BD80B582B0E4
:101E200000AF0346FB71FB791B09DBB21846FFF7D5
:101E3000D9FFFB7903F00F03DBB21846FFF7D2FF9F
:101E40000837BD4680BD00BF80B582B000AF0346F5
:101E5000FB80FB881B0A9BB2DBB21846FFF7DEFF54
:101E6000FB88DBB21846FFF7D9FF0837BD4680BDB7
:101E700080B582B000AF78607B681B0C9BB21846BF
:101E8000FFF7E2FF7B689BB21846FFF7DDFF0837DC
:101E9000BD4680BD80B584B000AF78600023FB7381
:101EA0007A688E4B9A4213D90023FB7306E07A6856
:101EB0008B4B13447B60FB7B0133FB737A68874B4E
:101EC0009A42F4D8FB7B3033DBB21846FFF748FF69
:101ED0007A68844B9A4214D90023FB7306E07A682F
:101EE000814B13447B60FB7B0133FB737A687D4B32
:101EF0009A42F4D8FB7B3033DBB21846FFF730FF51
:101F000005E0FB7B002B02D03020FFF729FF7A6829
:101F1000764B9A4214D90023FB7306E07A68744B1F
:101F200013447B60FB7B0133FB737A686F4B9A42EF
:101F3000F4D8FB7B3033DBB21846FFF711FF05E026
:101F4000FB7B002B02D03020FFF70AFF7A68694B39
:101F50009A4216D90023FB7308E07B68A3F574232B
:101F6000A3F510737B60FB7B0133FB737A68614BD5
:101F70009A42F2D8FB7B3033DBB21846FFF7F0FE13
:101F800005E0FB7B002B02D03020FFF7E9FE7A68EA
:101F9000594B9A4215D90023FB7307E07B68A3F5E0
:101FA000C333A03B7B60FB7B0133FB737A68524BEE
:101FB0009A42F3D8FB7B3033DBB21846FFF7D0FEF2
:101FC00005E0FB7B002B02D03020FFF7C9FE7A68CA
:101FD00042F20F739A4216D90023FB7307E07B6825
:101FE000A3F51C53103B7B60FB7B0133FB737A68CA
:101FF00042F20F739A42F2D8FB7B3033DBB21846C1
:10200000FFF7AEFE05E0FB7B002B02D03020FFF790
:10201000A7FE7B68B3F57A7F14D30023FB7306E039
:102020007B68A3F57A737B60FB7B0133FB737B6872
:10203000B3F57A7FF4D2FB7B3033DBB21846FFF77F
:102040008FFE05E0FB7B002B02D03020FFF788FEDF
:102050007B68632B14D97A68284BA3FB02135B09B6
:10206000FB73FB7B3033DBB21846FFF779FEFB7B5B
:102070006FF0630202FB03F37A6813447B6005E0B0
:10208000FB7B002B02D03020FFF76AFE7B68092B18
:1020900014D97A681A4BA3FB0213DB08FB73FB7B92
:1020A0003033DBB21846FFF75BFEFB7B6FF00902B3
:1020B00002FB03F37A6813447B6005E0FB7B002B93
:1020C00002D03020FFF74CFE7B68DBB23033DBB24E
:1020D0001846FFF745FE1037BD4680BDFFC99A3B45
:1020E000003665C4FFE0F505001F0AFA7F969800E8
:1020F000806967FF3F420F009F8601001F85EB51FB
:10210000CDCCCCCC80B582B000AF78607B68002BA2
:1021100005DA2D20FFF724FE7B685B427B607B683D
:102120001846FFF7B7FE0837BD4680BD80B582B0C0
:1021300000AFC7E90001D7E900014FF000024FF0FE
:10214000000302F003FE0346002B08D02D20FFF70A
:1021500007FE3B683B607B6883F000437B60D7E908
:10216000000102F043FE03461846FFF793FE2E20BF
:10217000FFF7F6FDD7E9000102F010FE034618460E
:1021800002F00CFB02460B46D7E9000102F0B8F959
:1021900002460B46C7E90023D7E900014FF00002D1
:1021A000154B02F061FB02460B46C7E90023D7E955
:1021B00000014FF00002114B02F0C8FD0346002B56
:1021C00002D03020FFF7CCFDD7E900014FF000022C
:1021D0000B4B02F0BBFD0346002B02D03020FFF773
:1021E000BFFDD7E9000102F001FE03461846FFF7E4
:1021F00051FE0837BD4680BD00408F400000594069
:10220000000024400FB480B584B000AF07F11C0378
:102210007B600023FB600023FB72B0E0FB7A002BA5
:1022200000F0A380BB7A633B152B00F29A8001A2D9
:1022300052F823F039230000BD2200006323000080
:1022400063230000E72200006323000063230000F3
:1022500063230000632300008D220000632300003D
:1022600063230000632300000723000063230000B2
:10227000632300004F23000063230000932200002B
:102280006323000063230000072300000423FB7284
:102290006AE0FB7A042B07D17B681A1D7A601B6801
:1022A0001846FFF7F7FD06E07B681A1D7A601B6889
:1022B0001846FFF7EFFD0023FB7255E0FB7A042B75
:1022C00007D17B681A1D7A601B681846FFF71AFF52
:1022D00006E07B681A1D7A601B681846FFF712FF3C
:1022E0000023FB7240E07B68073323F0070303F110
:1022F00008027A60D3E9002310461946FFF716FF5B
:102300000023FB7230E02648FFF754FDFB7A042BD4
:1023100007D17B681A1D7A601B681846FFF7A8FD75
:1023200007E07B681A1D7A601B689BB21846FFF7AE
:102330008BFD0023FB7217E07B681A1D7A601B6817
:10234000DBB21846FFF70CFD0023FB720CE07B6844
:102350001A1D7A601B681846FFF72CFD0023FB72DC
:1023600002E00023FB7200BF09E0BB7A252B02D1FB
:102370000223FB7203E0BB7A1846FFF7F1FCFB680F
:102380005A1CFA60BA6913441B78BB72BB7A002BE3
:102390007FF444AF1037BD46BDE8804004B07047BD
:1023A000A400001080B485B000AF78607B6803F0B3
:1023B0000703FB600C4BDB68BB60BA684FF6FF039A
:1023C0001340BB60FB681A02BB68134343F0BF6352
:1023D00043F40033BB60044BBA68DA601437BD467F
:1023E0005DF8047B704700BF00ED00E080B483B06F
:1023F00000AF78600C37BD465DF8047B704700BFC6
:1024000080B500AF01204FF40001012200F0A6FCCE
:1024100001204FF40001002200F0B2FC0220202134
:10242000012200F09BFC02202021002200F0A8FCE9
:1024300002208021012200F091FC02208021002254
:1024400000F09EFC02200121012200F087FC002008
:102450001021012200F082FC00201021012200F056
:102460008FFC02200121012200F08AFC02200221BF
:10247000012200F073FC00204FF48061012200F083
:102480006DFC00204FF48061012200F079FC0220F5
:102490000221012200F074FC02200421012200F03C
:1024A0005DFC00204FF40021012200F057FC0020C9
:1024B0004FF40021012200F063FC022004210122DC
:1024C00000F05EFC02200821012200F047FC002001
:1024D0004FF40011012200F041FC00204FF40011E4
:1024E000012200F04DFC02200821012200F048FCEE
:1024F00002208021012200F031FC022080210122F3
:1025000000F03EFC02208021012200F027FC022086
:102510008021002200F034FC02204021012200F042
:102520001DFC02204021012200F02AFC80BD00BFDA
:1025300080B400AFBD465DF8047B704780B400AF47
:10254000BD465DF8047B704780B5ADF5005D88B091
:1025500000AFFEF7BFFDFEF7EDFD0520FFF722FF00
:102560000020FEF725FEFFF7F1F9FFF749FFFFF71F
:10257000DFFFFFF7E3FF9048FFF758FA8E4832215C
:102580008E4AFFF777FA8C4A137C43F004031374E6
:10259000FFF7C0F807F580531A464FF480531046F2
:1025A00000211A4602F042FC854B1B6C07F50050D7
:1025B00000F11C000360002307F5005101F1180130
:1025C0000B6001200121FEF7A7FF7E48FEF7D0FF38
:1025D000FEF7F0FF52E0FFF7A7FB0346002B4DD0BC
:1025E000FFF7ACFB034607F5005202F10B02137034
:1025F000754B1B6C744A07F5005000F10B00017815
:10260000D154714B1B6C5A1C6F4B1A6407F5005167
:1026100001F10B010B780A2B06D007F5005202F1ED
:102620000B0213780D2B12D1684B1B68002B0ED1B7
:10263000654B1B6C012B07DD634A92F8443043F075
:10264000010382F8443002E05F4B00221A645F4BC2
:102650001B68012B12D15E4B1B685A1C5C4B1A6025
:102660005B4B1A685B4B1B689A4207D1564A92F83B
:10267000443043F0010382F8443014E0524B93F8A5
:102680004430C3F30003DBB2002B0CD1FFF74CFB4B
:102690000346002B03D14D4B1B68012B03D14A4B42
:1026A0001B6C3F2B97DD494B1B68002B16D1464B0B
:1026B0001B6C002B12D0444801F0A2FB034607F527
:1026C000005000F10A0003703F4B00221A643E4A9A
:1026D00092F844306FF3000382F844303B4B1B68A0
:1026E000002B00F08481384B1B6C002B00F07F81A5
:1026F000354B1B6C34481946FFF742FB324B1B6CC1
:102700001A4607F5005101F118010B681344B3F59F
:10271000805F02D93048FFF74DFB002307F50052D8
:1027200002F11402136020E007F5005303F11403D3
:102730001A6807F5005000F1180003681344224995
:1027400007F5005000F1140002680A44117807F5FB
:102750008052D15407F5005101F114010B68013387
:1027600007F5005202F114021360174B1A6C07F5BB
:10277000005000F1140003689A42D5DC124B1B6C28
:1027800007F5005101F118010A68134407F50052DA
:1027900002F1180213600C4B00221A640A4A92F8E4
:1027A00044306FF3000382F84430094B1A68094B38
:1027B0001B689A422FD126E038060010ED23000056
:1027C000F44E000080C3C901F00500104C16001043
:1027D000E8160010EC160010C04E000007F58052FD
:1027E00007F5005000F1180003681344FF221A7027
:1027F00007F5005101F118010B68013307F500528C
:1028000002F11802136007F5005000F11800036888
:10281000B3F5805FE2D307F5005101F118010B68B1
:10282000B3F5805F40F0E38007F5805307F5005271
:1028300002F11C02106819464FF4805200F0F6F8BD
:1028400007F5005303F10403186007F5005000F189
:1028500004000368002B02D06548FFF7ABFA07F5C8
:10286000005101F11C010B6803F5805307F500527C
:1028700002F11C021360002307F5005000F118005C
:1028800003605C4B1A685C4B1B689A4240F0AF8057
:10289000302307F5005101F103010B70002307F508
:1028A000005202F10C0213604FF4704307F5005020
:1028B00000F11000036007F12003203B07F50051F1
:1028C00001F10C010A68134407F5005000F1030000
:1028D00002781A7007F5005101F10C010B68013301
:1028E00007F5005202F10C02136007F5005000F1E9
:1028F00010000368013307F5005101F110010B606E
:1029000025E007F5005202F1100213681A7807F16A
:102910002003203B07F5005000F10C0001680B4438
:102920001A7007F5005101F110010B68013307F52A
:10293000005202F11002136007F5005000F10C0084
:102940000368013307F5005101F10C010B6007F535
:10295000005202F10C021368B3F5805FD1DB274B04
:102960001B680F200F211A4600F09CF9234B1B68AF
:102970000F200F211A4600F06BF9204B1B680F2027
:102980000F211A4600F08EF91C4B1A681C4BA3FB52
:1029900002039A0907F12003203B10464FF47041CF
:1029A0001A464FF4805300F0F7F8144B1A68144B92
:1029B000A3FB02139A0907F12003203B10464FF4B2
:1029C00070411A464FF4805300F014F90A4B00226C
:1029D0001A60084B00221A600A4B00221A600A4B48
:1029E0001B6C07F5005202F11C021360F0E5EFE5E5
:1029F000DC4E0000E8160010EC160010000000107D
:102A0000D34D62104C160010F44E000080B400AF9D
:102A100062B6BD465DF8047B704700BF80B400AF6E
:102A200072B6BD465DF8047B704700BF80B586B0C6
:102A300000AFF860B9607A607B68B3F5805F57D10A
:102A4000FFF7ECFF00237B610AE0BA687B6913445F
:102A50001A782A497B690B441A707B6901337B61C0
:102A60007A697B689A42F0D3254B1A68254BA3FB01
:102A700002139A09FB681046194600F04DF8224BE4
:102A80001B68002B02D02148FFF794F91C4B1A68F1
:102A90001C4BA3FB02139909FA68BB680846114650
:102AA0001A464FF4805300F077F8174B1B68002B41
:102AB00002D01748FFF77EF9114B1A68114BA3FBA0
:102AC00002139909FA680D4B084611461A464FF44D
:102AD000805300F08FF80C4B1B68002B02D00D4880
:102AE000FFF768F90023FB60FFF790FF002300E089
:102AF000012318461837BD4680BD00BF4C060010A4
:102B000000000010D34D6210AC050010884F00008B
:102B1000A84F0000C04F000080B584B000AF7860BF
:102B20003960FFF77BFF1023FB6020E0174BFA684A
:102B300053F822203B689A4216D8FB681D2B05D11A
:102B4000F868F9687A6800F0ADF80DE0FB685A1C87
:102B50000E4B53F822203B689A4205D9F868F96871
:102B60007A6800F09FF805E0FB680133FB60FB68C2
:102B70001D2BDBD9FFF74AFF054B1B68002B02D04A
:102B80000448FFF717F91037BD4680BDF44E00002A
:102B9000AC050010884F000080B584B000AFF8602D
:102BA000B9607A603B60FFF739FF0F4B33221A6040
:102BB0000D4BBA685A600C4B7A689A600A4B3A68B7
:102BC000DA60094BFA681A610748084900F094F87E
:102BD000FFF71CFF054B1B68002B02D00448FFF7D2
:102BE000E9F81037BD4680BD98050010AC0500100F
:102BF000A84F000080B584B000AFF860B9607A607B
:102C00003B60FFF70BFF0F4B38221A600D4BBA6881
:102C10005A600C4B7A689A600A4B3A68DA60094B42
:102C2000FA681A610748084900F066F8FFF7EEFEF7
:102C3000054B1B68002B02D00448FFF7BBF8103788
:102C4000BD4680BD98050010AC050010F04F000097
:102C500080B584B000AFF860B9607A60FFF7DEFE3F
:102C60000D4B34221A600C4BFA685A600A4BBA6852
:102C70009A60094B7A68DA600748084900F03CF826
:102C8000FFF7C4FE054B1B68002B02D00448FFF77A
:102C900091F81037BD4680BD98050010AC050010B6
:102CA000D84F000080B584B000AFF860B9607A609A
:102CB000FFF7B4FE0D4B32221A600C4BFA685A60D3
:102CC0000A4BBA689A60094B7A68DA600748084983
:102CD00000F012F8FFF79AFE054B1B68002B02D09C
:102CE0000448FFF767F81037BD4680BD980500100F
:102CF000AC0500100850000080B584B000AF7860CB
:102D00003960044BFB60FB68786839689847103776
:102D1000BD4680BDF11FFF1F80B582B000AF0E4AD7
:102D20004FF4803323F0604323F07F0393604FF42C
:102D300080331846FEF788F94FF4803304337B6004
:102D40007B681B683B60FEF7C5F9FEF7F3F93B684B
:102D500098470837BD4680BD00ED00E080B582B0E1
:102D600000AF396013460246FA71BB71FA79BB793C
:102D7000104639681A46FEF7AFFA0837BD4680BDDF
:102D800080B582B000AF396013460246FA71BB715C
:102D9000BB79002B05D0FB7918463968FEF7AEFAEF
:102DA00004E0FB7918463968FEF7B6FA0837BD46E5
:102DB00080BD00BF80B5ADF5835D82B000AF00235C
:102DC00007F5815000F107000370002307F58151DA
:102DD00001F106010B70CD4B1B78C3F30003DBB28E
:102DE000002B00F0AE87C94B9B8840F261229342D2
:102DF00000F0408340F26122934213DC742B00F018
:102E00009581742B06DC722B30D0732B00F01D8162
:102E100000F07BBF752B00F0A381762B00F00A82B7
:102E200000F073BF40F28B22934200F0DF84B3F5D1
:102E3000237F0BDA40F27622934200F0348340F293
:102E40008A22934200F0368300F05FBF40F28D2269
:102E5000934200F09385B3F5237F40F3FD8440F265
:102E60005642934200F03C8700F04FBFA848FEF75F
:102E7000A1FFA64B5B78C3F30003DBB2002B07D0A6
:102E8000A448FEF797FFA14BDB681846FFF702F84E
:102E9000A148FEF78FFF07F10803083B1A464FF4DD
:102EA0008053104600211A4601F0C0FF002307F5A9
:102EB000835202F1040213604FF4504307F583502C
:102EC0000360012307F5825101F11C010B602FE023
:102ED0008E4A07F5825000F11C000368134420332A
:102EE0001A7807F10803083B07F5835000F1040046
:102EF00001680B441A7007F583510B68043307F51A
:102F00008352136007F5835000F104000368013316
:102F100007F5835101F104010B6007F5825202F1BC
:102F20001C021368013307F5825000F11C00036096
:102F300007F5835101F104010B68772BC8DD20E010
:102F400007F5835213681B68DAB207F10803083BE0
:102F500007F5835000F1040001680B441A7007F56F
:102F600083510B68043307F58352136007F58350D0
:102F700000F104000368013307F5835101F10401F6
:102F80000B6007F5835202F104021368B3F5805F0A
:102F9000D6DB624B1B680D200D211A46FFF782FE1F
:102FA0005E4B1B680D200D211A46FFF751FE5B4B4F
:102FB0001B680D200D211A46FFF774FE574B1A6847
:102FC000574BA3FB02039A0907F10803083B10467D
:102FD0004FF450411A464FF48053FFF7DDFD4F4B3D
:102FE0001A684F4BA3FB02139A0907F10803083B29
:102FF00010464FF450411A464FF48053FFF7FAFD44
:10300000002307F5825202F11802136014E03F4AD0
:1030100007F5825000F11800036813442033302272
:103020001A7007F5825101F118010B68013307F599
:10303000825202F11802136007F5825000F1180065
:103040000368772BE3DD00F07BBE3148FEF7B2FE6C
:103050002E4B5B78C3F30003DBB2002B07D02D4867
:10306000FEF7A8FE294BDB681846FEF713FF4FF466
:10307000504307F5825101F114010B60002307F55D
:10308000825202F11002136025E007F5825000F130
:10309000140003681A7807F10803083B07F582500B
:1030A00000F1100001680B441A7007F5825101F11C
:1030B00014010B68013307F5825202F11402136008
:1030C00007F5825000F110000368013307F58251C3
:1030D00001F110010B6007F5825202F11002136832
:1030E000772BD2DD0F48FEF765FE07F10803083B9A
:1030F000002283F8772007F10803083B1846FEF703
:1031000059FE0948FEF756FE00F01ABE5016001090
:103110002050000024500000285000000000001043
:10312000D34D62102C50000030500000B748FEF71D
:1031300041FEB74B5B78C3F30003DBB2002B07D033
:10314000B448FEF737FEB24BDB681846FEF7A2FE26
:10315000B148FEF72FFEB148FEF72CFE00F0F0BD9F
:10316000AA48FEF727FEAA4B5B78C3F30003DBB245
:10317000002B07D0A748FEF71DFEA54BDB681846BD
:10318000FEF788FE07F5805300221A600433002200
:103190001A60043300221A8002334FF4604307F5AB
:1031A000825000F10C000360002307F5825101F109
:1031B00008010B6029E007F5825202F1080213684A
:1031C000C3F1090307F5825000F10C000268127880
:1031D00007F5835101F108010B4403F8682C07F54A
:1031E000825202F10C021368013307F5825000F19C
:1031F0000C00036007F5825101F108010B680133EF
:1032000007F5825202F10802136007F5825000F1BF
:1032100008000368092BCEDD8148FEF7CBFD07F5DA
:10322000805318460A21FEF7ABFD7C48FEF7C2FD2D
:1032300000F086BD7548FEF7BDFD754B5B78C3F3A6
:103240000003DBB2002B07D07248FEF7B3FD704BD2
:10325000DB681846FEF71EFE7248FEF7ABFD07F16D
:103260000803083B1A464FF48053104600211A46C3
:1032700001F0DCFD012307F5825101F104010B602F
:10328000002307F5815213604FF4604307F5825025
:1032900003604CE05E4A07F5825101F104010B68BE
:1032A000134420331B782F2B0AD9594A07F5825033
:1032B00000F104000368134420331B78392B10D924
:1032C0005948FEF777FD524B002283F89720574864
:1032D000FEF770FD07F5815101F106010B7800F052
:1032E0004DBD07F5825202F104021368C3F10A02D0
:1032F000474907F5825000F1040003680B4420336E
:10330000197807F10803083B995407F582510B68B7
:10331000043307F58252136007F5825000F1040070
:103320000368013307F5825101F104010B6007F5D1
:10333000825202F1040213680A2BABDD20E007F58C
:10334000825000F1040003685A1E07F582510B6891
:103350001B68D9B207F10803083B995407F582525C
:103360001368043307F58250036007F5825101F1B9
:1033700004010B68013307F5825202F10402136065
:1033800007F5825000F104000368B3F5805FD6DDD5
:10339000274B1B680E200E211A46FFF783FC244B97
:1033A0001B680E200E211A46FFF752FC204B1B68AB
:1033B0000E200E211A46FFF775FC1D4B1A681D4B97
:1033C000A3FB02139A0907F10803083B10464FF4C8
:1033D00060411A464FF48053FFF7DEFB144B1A6826
:1033E000144BA3FB02039A0907F10803083B10469C
:1033F0004FF460411A464FF48053FFF7FBFB002364
:1034000007F5815101F11C010B602AE020500000FA
:1034100050160010245000003450000030500000BE
:103420002C500000285000003C5000007016001086
:1034300000000010D34D6210544A07F5815000F18E
:103440001C0003681344203330221A7007F58151A1
:1034500001F11C010B68013307F5815202F11C02D6
:10346000136007F5815000F11C000368772BE3DD42
:1034700000F066BC4648FEF79DFC444B5B78C3F306
:103480000003DBB2002B07D04248FEF793FC3F4B12
:10349000DB681846FEF7FEFC3F48FEF78BFC01F0A8
:1034A00023F800F04DBC0020FDF79AF8FFF734FC3C
:1034B00000F046BC3648FEF77DFC344B5B78C3F326
:1034C0000003DBB2002B07D03248FEF773FC2F4B12
:1034D000DB681846FEF7DEFC2F48FEF76BFC2B4B33
:1034E000DA692E4B1A602D4B1B68002B04D02B4B36
:1034F0001B68B3F5E02F04D92948FEF75BFC00F008
:103500001FBC264B1B68002B00F06C81254B002252
:103510001A60254B01221A60FF2307F5805101F143
:103520001F010B70002307F5815202F11402136092
:103530004FF4704307F5815000F11800036007F164
:103540000803083B07F5815101F114010A6813448F
:1035500007F5805000F11F0002781A7007F58151BD
:1035600001F114010B68013307F5815202F11402D5
:10357000136007F5815000F118000368013307F567
:10358000815101F118010B6036E000BF50160010A8
:10359000205000002450000028500000EC160010BD
:1035A00054500000E81600104C16001007F5815228
:1035B00002F1180213681A7807F10803083B07F5AF
:1035C000815000F1140001680B441A7007F5815115
:1035D00001F118010B68013307F5815202F118025D
:1035E000136007F5815000F114000368013307F5FB
:1035F000815101F114010B6007F5815202F11402AF
:103600001368B3F5805FD1DBAA4B1B680F200F2135
:103610001A46FFF747FBA74B1B680F200F211A46DE
:10362000FFF716FBA34B1B680F200F211A46FFF76D
:1036300039FBA04B1A68A04BA3FB02039A0907F1C0
:103640000803083B10464FF470411A464FF480536C
:10365000FFF7A2FA974B1A68974BA3FB02139A093C
:1036600007F10803083B10464FF470411A464FF427
:103670008053FFF7BFFA8F4B1B68102010211A46AA
:10368000FFF710FB8B4B1B68102010211A46FFF729
:10369000DFFA884B1B68112011211A46FFF702FB45
:1036A000844B1B68112011211A46FFF7D1FA814B78
:1036B0001B68122012211A46FFF7F4FA7D4B1B6893
:1036C000122012211A46FFF7C3FA7A4B1B68132007
:1036D00013211A46FFF7E6FA764B1B6813201321D5
:1036E0001A46FFF7B5FA734B1B68142014211A46CB
:1036F000FFF7D8FA6F4B1B68142014211A46FFF706
:10370000A7FA6C4B1B68152015211A46FFF7CAFA59
:10371000684B1B68152015211A46FFF799FA654B6F
:103720001B68162016211A46FFF7BCFA614B1B686E
:10373000162016211A46FFF78BFA5E4B1B681720DE
:1037400017211A46FFF7AEFA5A4B1B6817201721AC
:103750001A46FFF77DFA574B1B68182018211A46A6
:10376000FFF7A0FA534B1B68182018211A46FFF7E1
:103770006FFA504B1B68192019211A46FFF792FA6D
:103780004C4B1B68192019211A46FFF761FA494B67
:103790001B681A201A211A46FFF784FA454B1B684A
:1037A0001A201A211A46FFF753FA424B1B681B20B6
:1037B0001B211A46FFF776FA3E4B1B681B201B2184
:1037C0001A46FFF745FA3B4B1B681C201C211A4682
:1037D000FFF768FA374B1B681C201C211A46FFF7BD
:1037E00037FAADE23548FEF7E5FAA9E23448FEF7CC
:1037F000E1FA344B5B78C3F30003DBB2002B07D054
:103800003148FEF7D7FA2F4BDB681846FEF742FB2C
:103810002E48FEF7CFFA4FF4704307F5805202F1BD
:103820001802136007F5805000F1180003681B7838
:1038300007F5805101F117010B702448FEF7BAFA21
:1038400007F5805202F1170213781846FEF788FA3E
:103850001F48FEF7AFFA73E21A4BDA691D4B1A6084
:103860001C4B1B68002B04D01A4B1B68B3F5E02FD0
:1038700003D91948FEF79EFA62E2184B1B6C07F554
:10388000805000F110000360002307F5815101F121
:1038900010010B600F4B1B6823F03F0307F58052AC
:1038A00002F10C021360002307F5815000F11000B3
:1038B00003602FE000000010D34D62107C50000028
:1038C0002050000050160010245000002C50000022
:1038D00030500000EC16001098500000F44E00002C
:1038E00007F5805101F110010A6807F5815000F1D8
:1038F00010000368134418464021FEF741FA07F50B
:10390000815101F110010B68403307F5815202F13A
:103910001002136007F5815303F110031A6807F5CD
:10392000805000F10C0003689A42D9D309E00120CD
:103930004FF48041FDF7A8FC01204FF48041FDF7D2
:10394000B7FC4548FEF7CCF903463F2BEFDD07F502
:10395000805101F110010A6807F5805000F10C0058
:1039600003681A443D4B1B6803F03F031046194699
:10397000FEF706FA394B00221A60E1E13848FEF7FB
:1039800019FA384B5B78C3F30003DBB2002B0AD083
:103990003548FEF70FFA334BDB681846FEF77AFA24
:1039A000304B0022DA603148FEF704FA2D4BDA6919
:1039B0002A4B1A60294B1B68002B04D0274B1B682D
:1039C000B3F5E02F03D92A48FEF7F4F9B8E1234B09
:1039D0001B68002B00F08081264B00221A60264BCA
:1039E00001221A60FF2307F5805101F10B010B70D2
:1039F000002307F5815202F1080213604FF470436F
:103A000007F5815000F10C00036007F10803083B43
:103A100007F5815101F108010A68134407F5805048
:103A200000F10B0002781A7007F5815101F10801CD
:103A30000B68013307F5815202F10802136007F5A4
:103A4000815000F10C000368013307F5815101F149
:103A50000C010B6038E000BFE4050010EC1600100C
:103A6000205000005016001024500000305000007C
:103A700054500000E81600104C16001007F5815253
:103A800002F10C0213681A7807F10803083B07F5E6
:103A9000815000F1080001680B441A7007F581514C
:103AA00001F10C010B68013307F5815202F10C02A0
:103AB000136007F5815000F108000368013307F532
:103AC000815101F108010B6007F5815202F10802F2
:103AD0001368B3F5805FD1DBAB4B1B680F200F2160
:103AE0001A46FFF7DFF8A84B1B680F200F211A4674
:103AF000FFF7AEF8A44B1B680F200F211A46FFF703
:103B0000D1F8A14B1A68A14BA3FB02039A0907F154
:103B10000803083B10464FF470411A464FF4805397
:103B2000FFF73AF8984B1A68984BA3FB02139A09CF
:103B300007F10803083B10464FF470411A464FF452
:103B40008053FFF757F8FDF735FD8F4B1B681020AA
:103B500010211A46FFF7A6F88B4B1B681020102186
:103B60001A46FFF775F8884B1B68112011211A4679
:103B7000FFF798F8844B1B68112011211A46FFF7B4
:103B800067F8814B1B68122012211A46FFF78AF84A
:103B90007D4B1B68122012211A46FFF759F87A4B09
:103BA0001B68132013211A46FFF77CF8764B1B681D
:103BB000132013211A46FFF74BF8734B1B68142090
:103BC00014211A46FFF76EF86F4B1B68142014215E
:103BD0001A46FFF73DF86C4B1B68152015211A4655
:103BE000FFF760F8684B1B68152015211A46FFF790
:103BF0002FF8654B1B68162016211A46FFF752F85E
:103C0000614B1B68162016211A46FFF721F8FDF7B5
:103C1000D1FC5D4B1B68172017211A46FFF742F8AD
:103C2000594B1B68172017211A46FFF711F8564BFE
:103C30001B68182018211A46FFF734F8524B1B68EE
:103C4000182018211A46FFF703F84F4B1B6819205C
:103C500019211A46FFF726F84B4B1B68192019212A
:103C60001A46FEF7F5FF484B1B681A201A211A4620
:103C7000FFF718F8444B1B681A201A211A46FEF762
:103C8000E7FF414B1B681B201B211A46FFF70AF870
:103C90003D4B1B681B201B211A46FEF7D9FF3A4BF0
:103CA0001B681C201C211A46FEF7FCFF364B1B68C4
:103CB0001C201C211A46FEF7CBFF334B1B681D202E
:103CC0001D211A46FEF7EEFF2F4B1B681D201D21FC
:103CD0001A46FEF7BDFF33E02D48FEF76BF82FE0E4
:103CE0002C4B1B7883F00103DBB2002B06D0294B51
:103CF00001221A702848FEF785FA21E0254B0022A0
:103D00001A702648FEF77EFA1AE02548FEF752F8A8
:103D1000244B9B881846FEF7BDF8224B5B78C3F313
:103D20000003DBB2002B07D01F48FEF743F81D4B02
:103D3000DB681846FEF7AEF81C48FEF73BF818E0C3
:103D400017E01B48FEF736F8164B5B78C3F3000309
:103D5000DBB2002B0AD01448FEF72CF8114BDB68BD
:103D60001846FEF797F80F4B0022DA601148FEF76D
:103D700021F807F5815202F106021378184607F57B
:103D800083570837BD4680BD00000010D34D621038
:103D90007C50000095050010BC500000D45000007D
:103DA000EC50000050160010245000002850000075
:103DB000FC5000003050000080B586B000AFC7E96D
:103DC00002017A604FF000020C4BC7E9042309E0BE
:103DD000D7E90401D7E9022300F046FD02460B466D
:103DE000C7E904237B685A1E7A60002BF0D1D7E91B
:103DF0000423104619461837BD4680BD0000F03F29
:103E000080B584B000AF78600023FB720023FB60B4
:103E100009E07A68FB6813441B78184600F0C2F882
:103E2000FB680133FB607B681A6CFB689A42F0DC2C
:103E3000FEF7C0FF0346FB72564B00225A75554AE7
:103E400093786FF300039370524B9B78C3F3000396
:103E5000D9B2504A537861F3C71353704D4B5B7816
:103E6000C3F3C013DBB21A464A4B1A75494B1B7D8C
:103E700003F00103D9B2474A537861F3C303537087
:103E8000444B5B78C3F3C003D9B2424A537861F321
:103E9000820353703F4B5B78C3F38003D9B23D4A32
:103EA000537861F3410353703A4B5B78C3F340039B
:103EB000D9B2384A137861F300031370354B1B787D
:103EC000C3F30003D9B2334A537861F3000353704C
:103ED000304B5B78C3F30003D9B22E4A137861F3F9
:103EE000C71313702B4B1B78C3F3C013D9B2294AE5
:103EF000137861F386131370264B1B78C3F380137A
:103F0000D9B2244A137861F345131370214B1B78FF
:103F1000C3F34013D9B21F4A137861F3041313702B
:103F20001C4B1B78C3F30013D9B21A4A137861F300
:103F3000C3031370174B1B78C3F3C003D9B2154AE0
:103F4000137861F382031370124B1B78C3F3800361
:103F5000D9B2104A137861F3410313700D4B00225C
:103F60009A750C4B0022DA600B4B00221A700B4B37
:103F700000225A60094B00221A7009494FF00002D2
:103F80004FF00003C1E90023FB7A18461037BD4605
:103F900080BD00BF50160010C0050010C405001001
:103FA000D0050010B0B584B000AF0146F971F979C1
:103FB000F973F979602906D9F9797A2903D8F97959
:103FC00021F02001F9717E490978002900F0DF8095
:103FD000F979402902D9F9795A2909D9F9792A298F
:103FE00006D0F9790A2903D0F9790D2940F0CF805C
:103FF00074490978002908D07349D1E900010246C3
:1040000081F000437049C1E900236D4B1B782A3BC6
:104010002A2B00F2AC8001A252F823F05741000095
:104020006F4100006F4100006F4100006F410000D0
:104030006F4100006F4100006F4100006F410000C0
:104040006F4100006F4100006F4100006F410000B0
:104050006F4100006F4100006F4100006F410000A0
:104060006F4100006F4100006F4100006F41000090
:104070006F4100006F410000414100006F410000AE
:104080006F4100006F4100006F4100006F41000070
:104090006F4100006F4100006F4100006F41000060
:1040A0006F4100006F410000C9400000FD4000006A
:1040B0006F4100006F4100006F4100006F41000040
:1040C00029410000134100003F4BD3E90023104673
:1040D000194600F08BFE03469AB23C4B9A803B4B4C
:1040E0009B88722B03D0394B9B88762B05D1374A9E
:1040F000537843F01003537039E038E0324BD3E982
:1041000000231046194600F071FE02462F4BDA607C
:104110002DE02D4BD3E900231046194600F066FE32
:1041200002462A4B9A6122E0274BD3E9002310462E
:10413000194600F033FE03469AB2244BDA8016E0AB
:10414000214BD3E900231046194600F04FFE0246EA
:104150001E4BDA610BE01C4BD3E9002310461946D5
:1041600000F044FE0346DAB2184B1A7500BF144B38
:1041700000221A70134B00225A60124B00221A7050
:1041800011494FF000024FF00003C1E900230F4B2B
:104190005B78C3F30013DBB2002B2FD0FB790A2B23
:1041A00008D0FB790D2B05D0FB79202B02D0FB79B1
:1041B0002A2B0DD1054A53786FF3041353701DE079
:1041C000C0050010C4050010D005001050160010E6
:1041D000B34B9B7D772B11D8B14B9B7D5A1CD1B231
:1041E000AF4A9175AE4A1344FA7983F82020AC4B5C
:1041F0009B7DAB4A1344002283F82020A84B5B78B8
:10420000C3F38003DBB2002B40F02981A44B5B7821
:10421000C3F3C003DBB2002B40F02181A04B5B78DD
:10422000C3F30013DBB2002B40F01981FB79402B64
:1042300002D9FB795A2B02D9FB792A2B02D1994B4F
:10424000FA791A70FB79283B362B00F2B18001A273
:1042500052F823F085430000B14300006D43000095
:10426000B1430000B1430000914300009F430000B0
:10427000B1430000B1430000B1430000B14300006E
:10428000B1430000B1430000B1430000B14300005E
:10429000B1430000B1430000B1430000B14300004E
:1042A00079430000B1430000B1430000B143000076
:1042B000B1430000B143000055430000B14300008A
:1042C000B1430000B1430000B1430000B14300001E
:1042D000B1430000B1430000B1430000B14300000E
:1042E000B1430000B1430000314300003D430000F2
:1042F000B1430000B1430000B1430000B1430000EE
:104300006143000049430000B1430000B143000095
:10431000B1430000B1430000B1430000B1430000CD
:10432000B1430000B1430000B143000079430000F5
:104330005B4A137843F0010313708FE0584A5378B7
:1043400043F00103537089E0554A537843F08003EA
:10435000537083E0524A937843F0010393707DE0F9
:104360004F4A137843F04003137077E04C4A537878
:1043700043F00203537071E0494A537843F0040359
:1043800053706BE0464A537843F00803537065E07E
:10439000454B01221A70444B00225A605EE0424BAA
:1043A0005B68002B03D1404B01225A6056E055E078
:1043B000FB792F2B52D9FB79392B4FD83A4B5B68BD
:1043C000002B1ED1394BD3E90023104619464FF07C
:1043D0000002374B00F048FA02460B4614461D46D1
:1043E000FB79303B184600F0D9F902460B462046CF
:1043F000294600F087F802460B462C49C1E9002304
:1044000022E0FB79303B184600F0C8F904460D461F
:10441000254B5B684FF0000025491A46FFF7CCFC9E
:1044200002460B462046294600F048FB02460B4652
:10443000104619461D4BD3E9002300F063F80246ED
:104440000B461A49C1E90023174B5B68002B05D0C6
:10445000154B5B685A1C144B5A600FE00EE0104B72
:104460005B78C3F3C003DBB2012B07D1FB79292BA7
:1044700004D10B4A53786FF3C3035370084B5B7836
:10448000C3F34003DBB2002B06D1054B5A7DFB7B07
:104490005340DAB2024B5A751037BD46B0BD00BF6B
:1044A00050160010C0050010C4050010D005001003
:1044B0000000244080B400AFBFF34F8FBD465DF8CD
:1044C000047B704780B500AF054A054BDB6803F4F9
:1044D000E061044B0B43D360FFF7ECFFFEE700BF46
:1044E00000ED00E00400FA0580B500AFFFF7EAFF39
:1044F0000023184680BD00BF81F0004102E000BFEC
:1045000083F0004330B54FEA41044FEA430594EA93
:10451000050F08BF90EA020F1FBF54EA000C55EACE
:10452000020C7FEA645C7FEA655C00F0E2804FEA9F
:104530005454D4EB5555B8BF6D420CDD2C4480EA81
:10454000020281EA030382EA000083EA010180EAB1
:10455000020281EA0303362D88BF30BD11F0004FFF
:104560004FEA01314FF4801C4CEA113102D0404235
:1045700061EB410113F0004F4FEA03334CEA133370
:1045800002D0524263EB430394EA050F00F0A78088
:10459000A4F10104D5F1200E0DDB02FA0EFC22FA83
:1045A00005F2801841F1000103FA0EF2801843FA77
:1045B00005F359410EE0A5F120050EF1200E012A68
:1045C00003FA0EFC28BF4CF0020C43FA05F3C018A6
:1045D00051EBE37101F0004507D54FF0000EDCF11F
:1045E000000C7EEB00006EEB0101B1F5801F1BD3C8
:1045F000B1F5001F0CD349085FEA30004FEA3C0CCC
:1046000004F101044FEA445212F5800F80F09A80C1
:10461000BCF1004F08BF5FEA500C50F1000041EBC5
:10462000045141EA050130BD5FEA4C0C404141EBC9
:10463000010111F4801FA4F10104E9D191F0000FF0
:1046400004BF01460020B1FA81F308BF2033A3F173
:104650000B03B3F120020CDA0C3208DD02F1140C6A
:10466000C2F10C0201FA0CF021FA02F10CE002F1A5
:104670001402D8BFC2F1200C01FA02F120FA0CFC9E
:10468000DCBF41EA0C019040E41AA2BF01EB0451E7
:10469000294330BD6FEA04041F3C1CDA0C340EDCE5
:1046A00004F11404C4F1200220FA04F001FA02F328
:1046B00040EA030021FA04F345EA030130BDC4F1E6
:1046C0000C04C4F1200220FA02F001FA04F340EADB
:1046D0000300294630BD21FA04F0294630BD94F08C
:1046E000000F83F4801306BF81F480110134013D73
:1046F0004EE77FEA645C18BF7FEA655C29D094EAE4
:10470000050F08BF90EA020F05D054EA000C04BF61
:104710001946104630BD91EA030F1EBF002100204C
:1047200030BD5FEA545C05D14000494128BF41F0EB
:10473000004130BD14F580043CBF01F5801130BD4F
:1047400001F0004545F0FE4141F470014FF00000DA
:1047500030BD7FEA645C1ABF194610467FEA655C8B
:104760001CBF0B46024650EA013406BF52EA03352D
:1047700091EA030F41F4002130BD00BF90F0000F1B
:1047800004BF0021704730B54FF4806404F1320457
:104790004FF000054FF0000150E700BF90F0000F10
:1047A00004BF0021704730B54FF4806404F1320437
:1047B00010F0004548BF40424FF000013EE700BF07
:1047C00042004FEAE2014FEA31014FEA02701FBF97
:1047D00012F07F4393F07F4F81F06051704792F069
:1047E000000F14BF93F07F4F704730B54FF46074E3
:1047F00001F0004521F0004120E700BF50EA01022E
:1048000008BF704730B54FF000050AE050EA0102DA
:1048100008BF704730B511F0004502D5404261EB4A
:1048200041014FF4806404F132045FEA915C3FF48B
:10483000DCAE4FF003025FEADC0C18BF03325FEA24
:10484000DC0C18BF033202EBDC02C2F1200300FAD9
:1048500003FC20FA02F001FA03FE40EA0E0021FAFE
:1048600002F11444C1E600BF70B54FF0FF0C4CF4E8
:10487000E06C1CEA11541DBF1CEA135594EA0C0F9E
:1048800095EA0C0F00F0DEF82C4481EA030621EAD9
:104890004C5123EA4C5350EA013518BF52EA033514
:1048A00041F4801143F4801338D0A0FB02CE4FF0C6
:1048B0000005E1FB02E506F00042E0FB03E54FF0F6
:1048C0000006E1FB03569CF0000F18BF4EF0010EEE
:1048D000A4F1FF04B6F5007F64F5407404D25FEAEA
:1048E0004E0E6D4146EB060642EAC62141EA55519D
:1048F0004FEAC52040EA5E504FEACE2EB4F1FD0CDF
:1049000088BFBCF5E06F1ED8BEF1004F08BF5FEA5C
:10491000500E50F1000041EB045170BD06F000460E
:1049200046EA010140EA020081EA0301B4EB5C04BB
:10493000C2BFD4EB0C0541EA045170BD41F48011B3
:104940004FF0000E013C00F3AB8014F1360FDEBFD8
:10495000002001F0004170BDC4F10004203C35DAB4
:104960000C341BDC04F11404C4F1200500FA05F337
:1049700020FA04F001FA05F240EA020001F00042D8
:1049800021F0004110EBD37021FA04F642EB06014E
:104990005EEA430E08BF20EAD37070BDC4F10C0478
:1049A000C4F1200500FA04F320FA05F001FA04F23C
:1049B00040EA020001F0004110EBD37041F1000128
:1049C0005EEA430E08BF20EAD37070BDC4F1200533
:1049D00000FA05F24EEA020E20FA04F301FA05F29B
:1049E00043EA020321FA04F001F0004121FA04F243
:1049F00020EA020000EBD3705EEA430E08BF20EA13
:104A0000D37070BD94F0000F0FD101F0004640004C
:104A100041EB010111F4801F08BF013CF7D041EACE
:104A2000060195F0000F18BF704703F000465200D2
:104A300043EB030313F4801F08BF013DF7D043EAA3
:104A40000603704794EA0C0F0CEA135518BF95EA59
:104A50000C0F0CD050EA410618BF52EA4306D1D1E0
:104A600081EA030101F000414FF0000070BD50EAFF
:104A7000410606BF1046194652EA430619D094EA89
:104A80000C0F02D150EA013613D195EA0C0F05D173
:104A900052EA03361CBF104619460AD181EA0301C7
:104AA00001F0004141F0FE4141F470014FF000007F
:104AB00070BD41F0FE4141F4780170BD70B54FF01A
:104AC000FF0C4CF4E06C1CEA11541DBF1CEA13559A
:104AD00094EA0C0F95EA0C0F00F0A7F8A4EB05047C
:104AE00081EA030E52EA03354FEA013100F0888073
:104AF0004FEA03334FF0805545EA131343EA12633C
:104B00004FEA022245EA111545EA10654FEA0026F0
:104B10000EF000419D4208BF964244F1FD0404F5A9
:104B2000407402D25B084FEA3202B61A65EB030505
:104B30005B084FEA32024FF480104FF4002CB6EBC2
:104B4000020E75EB030E22BFB61A754640EA0C0042
:104B50005B084FEA3202B6EB020E75EB030E22BF82
:104B6000B61A754640EA5C005B084FEA3202B6EBC3
:104B7000020E75EB030E22BFB61A754640EA9C0082
:104B80005B084FEA3202B6EB020E75EB030E22BF52
:104B9000B61A754640EADC0055EA060E18D04FEA10
:104BA000051545EA16754FEA06164FEAC30343EAB0
:104BB00052734FEAC2025FEA1C1CC0D111F4801F7D
:104BC0000BD141EA00014FF000004FF0004CB6E776
:104BD00011F4801F04BF01430020B4F1FD0C88BF15
:104BE000BCF5E06F3FF6AFAEB5EB030C04BFB6EB20
:104BF000020C5FEA500C50F1000041EB045170BD13
:104C00000EF0004E4EEA113114EB5C04C2BFD4EB3F
:104C10000C0541EA045170BD41F480114FF0000EC3
:104C2000013C90E645EA060E8DE60CEA135594EA3F
:104C30000C0F08BF95EA0C0F3FF43BAF94EA0C0F42
:104C40000AD150EA01347FF434AF95EA0C0F7FF4B7
:104C500025AF104619462CE795EA0C0F06D152EA0B
:104C600003353FF4FDAE1046194622E750EA4106EF
:104C700018BF52EA43067FF4C5AE50EA41047FF400
:104C80000DAF52EA43057FF4EBAE12E74FF0FF3C65
:104C900006E000BF4FF0010C02E000BF4FF0010C36
:104CA0004DF804CD4FEA410C7FEA6C5C4FEA430CAF
:104CB00018BF7FEA6C5C1BD001B050EA410C0CBFFE
:104CC00052EA430C91EA030F02BF90EA020F002060
:104CD000704710F1000F91EA030F58BF994208BFC7
:104CE00090422CBFD8176FEAE37040F00100704784
:104CF0004FEA410C7FEA6C5C02D150EA013C07D1DB
:104D00004FEA430C7FEA6C5CD6D152EA033CD3D025
:104D10005DF8040B704700BF8446104662468C461F
:104D20001946634600E000BF01B5FFF7B7FF002852
:104D300048BF10F1000F01BD4DF808EDFFF7F4FF7B
:104D40000CBF012000205DF808FB00BF4DF808ED06
:104D5000FFF7EAFF34BF012000205DF808FB00BF29
:104D60004DF808EDFFF7E0FF94BF012000205DF84B
:104D700008FB00BF4DF808EDFFF7CEFF94BF012000
:104D800000205DF808FB00BF4DF808EDFFF7C4FFF9
:104D900034BF012000205DF808FB00BF4FEA41024C
:104DA00012F5001215D211D56FF47873B3EB62527D
:104DB00012D94FEAC12343F0004343EA505311F0A4
:104DC000004F23FA02F018BF404270474FF0000036
:104DD000704750EA013005D111F0004008BF6FF074
:104DE000004070474FF00000704700BF4A0011D2EA
:104DF00012F5001211D20DD56FF47873B3EB625235
:104E00000ED44FEAC12343F0004343EA505323FA40
:104E100002F070474FF00000704750EA013002D1B5
:104E20004FF0FF3070474FF000007047F0B4840738
:104E300043D0541E002A3ED0CDB2034603E0621E8A
:104E4000002C38D0144603F8015B9A07F7D1032CE5
:104E50002AD9CDB245EA05250F2C45EA054515D9D5
:104E6000A4F110073F0903F1100606EB07161A46D6
:104E7000156055609560D5601032B242F8D104F0EB
:104E80000F040137032C03EB07130DD91E462246EE
:104E9000043A032A46F8045BFAD8221F22F00302E0
:104EA0000432134404F003042CB1C9B21C4403F8C7
:104EB000011BA342FBD1F0BC704714460346C6E772
:104EC00044616E6765723A20736563746F72206F18
:104ED000766572666C6F770A0000000050726F6230
:104EE0006C656D2077726974696E67207365637491
:104EF0006F720A0000000000001000000020000097
:104F00000030000000400000005000000060000081
:104F100000700000008000000090000000A0000071
:104F200000B0000000C0000000D0000000E0000061
:104F300000F00000000001000080010000000200FD
:104F40000080020000000300008003000000040055
:104F5000008004000000050000800500000006003D
:104F60000080060000000700008007004572726F95
:104F7000723A2072656164696E6720736572696157
:104F80006C200A00200000004572726F723A207097
:104F90007265706172696E6720746F2077726974D0
:104FA0006520646174610A004572726F723A2077FD
:104FB000726974696E6720646174610A00000000A0
:104FC0004572726F723A20766572696679696E67AA
:104FD00020646174610A00004572726F723A206544
:104FE000726173696E6720646174610A0000000079
:104FF0004572726F723A20636F6D706172696E678D
:1050000020646174610A00004572726F723A207008
:105010007265706172696E6720646174610A000074
:105020006F6B2000204E3A000A00000020000000B4
:105030000D0A0000342E332E33000000696E7661B5
:105040006C69642073657269616C206E756D626550
:10505000720A0000696E76616C6964206E756D621B
:105060006572206F6620627974657320746F207496
:1050700072616E736665720A000000004572726F9D
:10508000722065726173696E672075736572206640
:105090006C6173680A000000696E76616C69642057
:1050A0006E756D626572206F66206279746573201B
:1050B000746F20726561640A000000006F6B204409
:1050C00065627567204D6F646520456E61626C6531
:1050D000640A00006F6B204465627567204D6F6441
:1050E000652044697361626C65640A006F6B2042DD
:1050F0006164204D2D636F6465200000453A2042B5
:10510000616420636F6465202D206F6B00000000D8
:10511000000000003051000000000010A800000056
:045120005016000025
:08512400A0AFFF7F01000000B5
:1051300000E1F50512011001FF000040C92902003D
:1051400000010102030109022000010100C032092F
:1051500004000002FF0000000705050240000007F0
:1051600005820240000004030904200342004500B8
:1051700045005600450052005900430052004500CA
:1051800041005400490056004500220342004500FA
:1051900045005400480045004600490052005300B5
:1051A0005400200050004C005500530018033000FC
:1051B000300030003000300030003000300030006F
:1051C0003000000000400040008000400000094026
:0851D0000040094030780000A6
:04000003000000C534
:00000001FF
